:020000040800F2
:1000000088070020F9020008B72D00082F2D0008EE
:10001000B52D0008F51E0008D52F000800000000CF
:10002000000000000000000000000000BB2D0008E0
:10003000F71E000800000000B92D0008BD2D0008C3
:100040001303000813030008130300081303000838
:100050001303000813030008130300081303000828
:100060001303000813030008130300081303000818
:100070001303000813030008130300081303000808
:1000800013030008130300081303000813030008F8
:1000900013030008130300081303000813030008E8
:1000A00013030008130300081303000813030008D8
:1000B00013030008130300081303000813030008C8
:1000C00013030008130300081303000813030008B8
:1000D00013030008130300081303000813030008A8
:1000E0001303000813030008130300081303000898
:1000F0001303000813030008130300081303000888
:100100001303000813030008130300081303000877
:100110001303000813030008130300081303000867
:100120001303000813030008130300081303000857
:100130001303000813030008130300081303000847
:100140001303000813030008130300081303000837
:100150001303000813030008130300081303000827
:100160001303000813030008130300081303000817
:100170001303000813030008130300080000000025
:1001800013030008130300081303000813030008F7
:1001900013030008130300081303000813030008E7
:1001A00013030008130300081303000800F002F80B
:1001B00000F092F80AA090E8000C82448344AAF16F
:1001C0000107DA4501D100F087F8AFF2090EBAE86D
:1001D0000F0013F0010F18BFFB1A43F0010318477B
:1001E0008C340000AC340000103A24BF78C878C1C9
:1001F000FAD8520724BF30C830C144BF04680C602D
:10020000704700000023002400250026103A28BF74
:1002100078C1FBD8520728BF30C148BF0B60704778
:100220006E2900F02D82702900F06F83662903F09B
:100230008E81652903F08B81672903F0888161290C
:1002400003F0878103681B0A28BF41F080016929F8
:1002500000F0DA81642900F0D781752900F0D4819B
:100260006F2900F0FC82782900F03B83E92900F037
:100270009782E42900F09482F52900F09182EF2919
:1002800000F0F982F82900F03A830368DB0928BFFF
:1002900041F08001632901F03D80732901F0428023
:1002A000E32901F04D80F32901F0528000207047CE
:1002B0001FB503F047F901F09DF80400002000216C
:1002C00003F02AF9401C60600020002103F00EF9C1
:1002D000E0601FBD10B510BD01F05EF81146FFF7DC
:1002E000E7FF03F097F801F03BF903B4FFF7F2FFE3
:1002F00003BC01F083F90000094880470948004722
:10030000FEE7FEE7FEE7FEE7FEE7FEE7FEE7FEE7C5
:10031000FEE7FEE704480549054A064B7047000022
:10032000412E0008AD010008880100208807002048
:10033000880300208803002053EA020C00F0698043
:100340002DE9F04B4FF00006002B1FBFB3FA83F5E9
:1003500003FA05F424FA05F65E4012BF1643B2FA1A
:1003600082F502FA05F4C5F120051EBF22FA05FC4C
:1003700044EA0C04203556EA044C4FEA144418BFF2
:10038000641C4FF000084FF00009904271EB030C21
:1003900039D3002919BFB1FA81F701FA07F6B0FA8B
:1003A00080F700FA07F6C7F120071EBF20FA07FC06
:1003B00046EA0C062037B6FBF4FCA7EB0507103F16
:1003C00007F01F0BCBF120060CFA0BFB2CFA06F6FC
:1003D00044BFB3460026202FA4BF5E464FF0000B5B
:1003E0005BEA060C08BF4FF0010B19EB0B09ABFBE6
:1003F000027C48EB0608C01B06FB02CC0BFB03CCBF
:1004000071EB0C01C1E70B46024641464846BDE888
:10041000F08B13B54FF000004FF00001AFF30080F8
:10042000BDE81C40704700001CB50C46064B7B44E1
:1004300069460090204600F03CF9044600206946D9
:1004400000F04AF920461CBDA702000010B5431C6D
:1004500002E010F8011B71B18107FAD14FF00132AF
:1004600002C88C1A8C4314EAC211F9D0C01A0A06C9
:1004700003D0C01E10BDC01A10BD0A0401D0801EDA
:1004800010BD0902FCD0401E10BD10B5203AC0F0CE
:100490000B80B1E81850203AA0E81850B1E8185085
:1004A000A0E81850BFF4F5AF5FEA027C24BFB1E8C2
:1004B0001850A0E8185044BF18C918C0BDE8104033
:1004C0005FEA827C24BF51F8043B40F8043B08BF3C
:1004D0007047D20728BF31F8023B48BF11F8012B03
:1004E00028BF20F8023B48BF00F8012B70474FF0AF
:1004F000000200B5134694469646203922BFA0E874
:100500000C50A0E80C50B1F12001BFF4F7AF09077F
:1005100028BFA0E80C5048BF0CC05DF804EB890070
:1005200028BF40F8042B08BF704748BF20F8022BB3
:1005300011F0804F18BF00F8012B704770477047CB
:10054000704770B5044685690068C10601D530263C
:1005500000E02026C00707D070BDD4E90121304655
:100560009047206A401C20626D1EF6D570BD70B5A4
:10057000044685690078C00707D170BDD4E9012120
:1005800020209047206A401C20626D1EF6D570BD69
:1005900009684A0501D540B27047C905FCD500B2CB
:1005A000704709684A0501D5C0B27047C905FCD536
:1005B00080B2704770B50C460546012A05D02878F0
:1005C000800600D5EA69002302E0012305E05B1CF8
:1005D000934202D2E05C0028F9D1A869E618C01A5B
:1005E000A861286A184428622846FFF7AAFF04E099
:1005F000D5E9012114F8010B9047B442F8D32846FD
:10060000FFF7B5FF70BD00002DE9F041064600245C
:1006100010687529314616A510D0FFF7B9FF0028DC
:1006200002DA404213A507E031688A0701D512A516
:1006300002E0490704D511A5012401E0FFF7B1FF4D
:1006400000210A2206F1240709E0B0FBF2FCB0FB0E
:10065000F2F302FB1C00303078541846491C002885
:10066000F3D123462A463046BDE8F04100F061BA96
:10067000000000002D0000002B0000002000000002
:1006800011680268006A530501D508700AE0D305B5
:1006900001D5088006E0130603D5C217C1E90002A0
:1006A00000E008600120704701694A1C0261087877
:1006B000704700B58FB0CDE90131002105910549A2
:1006C0007944CDE903101146684600F029F90FB0CE
:1006D00000BD0000E5FFFFFF0A6802F8010B0A6099
:1006E000704700002DE9FF5F15468A460446DFF893
:1006F000AC80F8440027D8E900103E46CDE9001050
:1007000010E03AF816106A4602A800F025FE411CD7
:1007100007D02178890603D5E269391891420DD8AE
:100720000744761C2078800602D5E069B84205DDD2
:10073000AE42E6DB3AF816000028E2D1A069C01B01
:10074000A0612046FFF7FDFED8E90010CDE90010BA
:10075000002017E03AF818106A4602A800F0FCFDE5
:10076000B0F1FF3F81460BD000250DF1080B05E0ED
:10077000D4E901211BF8050090476D1C4D45F7D3C6
:1007800008F10100B0428046E4DB206A3844206270
:100790002046FFF7ECFEBDE8FF9F00007A2E000028
:1007A0002DE9F0418046D21D22F007020025D2E952
:1007B0000002F52915A614D0011E72F1000106DA17
:1007C0000023D0EB030063EB020211A608E0D8F887
:1007D00000108B0701D50FA602E0490701D50EA630
:1007E00001251146002408F1240704E000F05CF91B
:1007F00030323A55641C50EA0102F7D12B4632469A
:1008000021464046BDE8F04100F093B900000000E9
:100810002D0000002B0000002000000030B400215B
:1008200000F1240408E002F00705D208303542EA5E
:100830004372DB086554491C52EA0305F3D104688E
:10084000002310A2250707D5A40600D421B1C4694E
:1008500001230DA2641EC46130BC00F06AB910B55A
:10086000044621461068FFF79CFE02462046BDE87C
:1008700010400023D2E7D21D22F00701D1E9002366
:10088000CCE700000000000030000000F0B40D468E
:100890000188090502D5214C7C4402E01F4C7C44B0
:1008A0000E34002100F1240608E002F00F071209BF
:1008B000E75D42EA03721B097754491C52EA0307B9
:1008C000F3D102780023120704D5702D06D009B1A8
:1008D000022311342246F0BC00F02BB9012310345E
:1008E000F8E770B504460D4621461068FFF759FE3B
:1008F000024629462046BDE870400023C6E7D21DC7
:1009000022F00703D3E90023C0E70368126843F02D
:10091000200303600823C3610023B7E7DC2C000039
:100920002DE9F05F894604464FF0000ADFF874B104
:10093000FB44C0F820A02046E1688847002874D016
:10094000252806D0D4E901219047206A401C206266
:10095000F1E700265F462046E168884720280546E3
:1009600007DB312D05D2781910F8200C08B10643A9
:10097000F1E7B00701D526F00406C4F81CA0002753
:10098000C4F818A02A2D09D0284602F04CFB38B331
:1009900004EB8708303DC8F8185019E059F8041BDB
:1009A000204604EB87029161E1688847012F0546E4
:1009B00018D1E069002820DA26F020061DE0D8F8DA
:1009C000180000EB800005EB40003038C8F8180034
:1009D0002046E1688847054602F025FB0028EED155
:1009E000012F0AD02E2D08D12046E16888477F1CB0
:1009F0000546022F46F02006C4DBA069002803DA72
:100A0000404246F00106A061F00701D026F0100632
:100A10006C2D0BD0682D09D04C2D39D06A2D35D0D6
:100A2000742D35D07A2D33D016E038E0E1682F46AA
:100A300020468847B842054609D16C2F26D04FF48E
:100A40008060E168064320468847054604E06C2F35
:100A50001AD04FF4807006430DB3A5F14100192858
:100A600002D8203546F400664A46294620462660CC
:100A70004E46FFF7D5FB80B101280BD0F61D26F0BE
:100A8000070000F1080956E74020E4E78020D8E796
:100A90000020D6E706F104094DE7284652E7206A10
:100AA000BDE8F09F6C2C000030B5B0F10A024FEAAF
:100AB000900E71F100034EEA817EB0EB0E0061EB07
:100AC00091014FEA101E4EEA017E10EB0E0041EB41
:100AD00011114FEA102E4EEA016E10EB0E0041EBA1
:100AE00011214FEA104E4EEA014E10EB0E0041EB81
:100AF0001141401841F100014FEAD00040EA417035
:100B00004FEAD10110EB80054FEA810444EA90746A
:100B100044EB01046D1944EB0404521BA3414FF054
:100B2000000348BF0A3200D530BD401C41F100012E
:100B300030BD2DE9F0470D4699469246044600F136
:100B400024080168880604D5E06921F010012160BD
:100B500000E00120A84201DD471B00E00027A16959
:100B60007A1902EB0900081AA0612078C00602D4A5
:100B70002046FFF7E6FC002608E0D4E901211AF838
:100B800006009047206A401C761C20624E45F4DB2C
:100B90002078C0060AD52046FFF7D3FC06E0D4E94A
:100BA000012130209047206A401C2062381EA7F1A6
:100BB0000107F4DC07E0D4E9012118F805009047AB
:100BC000206A401C2062281EA5F10105F3DC2046A6
:100BD000FFF7CDFC2078000602D50220BDE8F087A3
:100BE0000120FBE770472DE9FF4F0C461E464FF0F2
:100BF000FF378BB0D2E90001DDF860800A908A46A9
:100C0000C1F30A5505B93D46002108464FF00000E2
:100C1000BAF1000F00F4400005DA00EB80004FF459
:100C2000400101EA50004FEA9059B9F1010F00DD8F
:100C3000B9460A9850EA4A000ED044F61050A5F280
:100C4000FF3545432F14B8F1000F1ED07542291E01
:100C50001EDDC9F100021CE0B8F1010F4FF00000E9
:100C600001D0302103E0F24305E02154401CB042A2
:100C7000FBDB30460022002121540B99C1F808808B
:100C8000C1E900200FB0BDE8F08FBD1B6D1CDEE791
:100C90004A4600DA694206A800F0F0FB06AB93E88A
:100CA000070003AB83E8070050460A9900F0ADFC4B
:100CB0008DE80700A0F500501F3800900398002D24
:100CC0000ADD42F21F014A460844002303A90390AB
:100CD000684600F016FF09E0A0F500504A461F38AC
:100CE000002303A90390684600F020FF8DE8070069
:100CF0000004000C03D04FF0FF30410800E0104624
:100D0000B8F1000F03D00022009215461EE0751EB8
:100D100005D4FFF7C9FE303262556D1EF9D5B346D2
:100D20000122084302D000227F1C04E020783028F2
:100D300001D100227F1E002A099784D01DE0112DC9
:100D400007DAFFF7B1FE303262556D1C50EA01023E
:100D5000F5D1084302D00098C8B10EE00021681E0A
:100D600005E0235C625C63542254401E491C8142AE
:100D7000F7DBAB46A81B401E0990002004F80B00CF
:100D80000B98099AC0F80880C0E9002B7AE7112671
:100D90004FF0000857E72DE9F04F88460446D21D72
:100DA00022F0070191B0D1E90001CDE90A0102F07A
:100DB00012F902460B98C00F01D02D2007E02068E1
:100DC000810701D52B2002E0202101EAC000032A7F
:100DD000099001D0072A05DB03464146204600F072
:100DE0000DFB0BE12078800601D5E06900E00620CC
:100DF000B8F1650F814606D0B8F1660F18D0B8F18A
:100E0000670F70D131E00020B9F1110F009001DBC4
:100E1000112301E009F101030AAA01A90CA8FFF7B7
:100E2000E2FEDDE90C70002609F10105834647E08A
:100E300001204B4600904FF000470AAA01A90CA8D8
:100E4000FFF7D1FEDDE90DB00C995D46002610B923
:100E500009F101000D18B9EB050003D4C0F1FF360C
:100E600009F10105A5EB09002BE0B9F1010F01DA49
:100E70004FF001090020B9F1110F0090484601DD43
:100E8000112300E003460AAA01A90CA8FFF7ABFE54
:100E9000DDE90C704D4600268346207800070AD411
:100EA000AB4500DA5D4601A8012D04DD411911F8BA
:100EB000011C302907D04F4502DA17F1040F04DA7C
:100EC000012082460FE06D1EEEE7002F02DCED1BD5
:100ED0003E4403E0781CA84200DD7D1CB81B00F1F5
:100EE000010A4FF000472078000703D4AA4501DB30
:100EF0004FF0FF3A0021B7F1004F0DF143088DF894
:100F0000431024D002202B23002F01DA7F422D230F
:100F10000A21021EA0F1010000DC5FB197FBF1FC89
:100F200097FBF1F201FB1C7C17460CF1300C08F822
:100F300001CDEEE7A8F1010003702188090501D574
:100F4000452100E06521A0F1010800F8011C099885
:100F50000FA9A1EB0807FF1D00B10120411901EB0A
:100F6000EA70A1693844081A401EA0612078C006C2
:100F700002D42046FFF7E5FA099828B1D4E9012107
:100F80009047206A401C20622078C00622D5204667
:100F9000FFF7D7FA1EE0002E04DBB34502DD01A8FF
:100FA000805D00E03020D4E901219047206A401C98
:100FB0002062761CAAF101005FEA000A0AD100F063
:100FC00019FAC0680168405CD4E901219047206AA1
:100FD000401C2062281EA5F10105DCDC07E0D4E9F5
:100FE000012118F8010B9047206A401C2062381E2E
:100FF000A7F10107F3DC2046FFF7B9FA032011B08F
:1010000041E600002DE9F04F04460D46D21D22F0C6
:10101000070089B0D0E900974846394601F0DBFF68
:101020000246F80F01D02D2307E02068810701D583
:101030002B2302E0202101EAC0038DF820300BB100
:10104000012000E00020032A824601D0072A04DBA9
:101050002946204600F0D2F93FE12078800601D4ED
:101060000D2500E0E569C7F30A560D2D49DA002188
:101070004FEA175B08464FF00000002F00F44000D5
:1010800007DA00EB80004FF4400100EBD07001EA7A
:1010900060008115012901DD4FF0FF3100224FEA88
:1010A000850CBCF1180F06D31346ACF118004FF0B5
:1010B0008052C24003E04FF4801323FA0CF30CF18A
:1010C0000C0CBCF1200F04D3ACF1200C09FA0CF08D
:1010D00001E007FA0CF000294FF0004801DD18B9D3
:1010E0000FE00ED140450CD319EB02095F4121B945
:1010F000404502D19F4329EA0209BBEB175F00D0AC
:10110000761C2088000502D57B48784402E07A48A6
:101110007844193808AA302302F80A30037C0AF10F
:101120000101002E0AF1020A53546A4602DC4FF014
:10113000300101E04FF031014FF001088DF800104F
:1011400002D0A6F2FF3603E059EA470100D06B4E09
:10115000002D02DC2178090704D54FF002082E216A
:101160008DF80110C44600210BE0C7F303433F0193
:10117000C35C491C6D1E02F80830052908F10108FE
:1011800001DA002DF1DC00210CE000EB1973491CA1
:101190001B786D1E082902F808304FEA091908F17A
:1011A000010801DA002DF0DC21688B0602D516E07B
:1011B000A8F10108E04505DD02EB080313F8013C46
:1011C000302BF5D0B8F1000F09DD02EB080313F85E
:1011D000013C2E2B03D1090701D4A8F10108002DF1
:1011E00005DD3E2102F808106D1E08F10108407C63
:1011F000002E02F8080008F1010804DA2D207642DA
:1012000002F8080002E02B2002F808000A214FF43F
:101210007A70864208F101080BDB96FBF0F330335D
:1012200002F8083096FBF0F308F1010800FB1366A2
:1012300001E0642E0CDB642096FBF0F3303302F8FF
:10124000083096FBF0F308F1010800FB136601E09B
:101250000A2E06DB96FBF1F0303002F8080008F1A8
:10126000010896FBF1F001FB1060303002F8080035
:10127000A16908F1010808EB050202EB0A00081A4F
:10128000A0612078C00602D42046FFF75AF9216AEF
:1012900008AE01EB0A00206204E0D4E9012116F84F
:1012A000010B9047BAF1010AF7D22078C00602D5A7
:1012B0002046FFF746F96E4609E016F8010B3E2876
:1012C0000FD0D4E901219047206A401C2062B8F178
:1012D0000108F2D22046FFF74AF909B00320BDE821
:1012E000F08F206A2844206203E0D4E901213020F5
:1012F00090476D1EEBD3F8E7B624000002FCFFFF19
:1013000010B5436913B1AFF3008001E0FFF752F964
:10131000012010BD127800F124010A7000224A70E9
:101320000122EDE711684FF0FF32E9E710B543699C
:1013300013B1AFF3008001E0FFF7D4F9012010BD35
:10134000128800F1240182840022C2840122EDE788
:1013500011684FF0FF32E9E770B516460C460546B6
:1013600000F040F8036893F80101012806D0FF2C33
:101370000FD8185D68B101202C7070BDD3F807013B
:101380003246214603F2071303442846BDE8704065
:1013900018474FF0FF3070BD754600F0EBF8AE46D1
:1013A00005006946534620F00700854618B020B571
:1013B000FEF7B0FFBDE820404FF000064FF00007F9
:1013C0004FF000084FF0000B21F00701AC46ACE8ED
:1013D000C009ACE8C009ACE8C009ACE8C0098D465A
:1013E0007047000010B500F005F8001D10BD00BFEB
:1013F0002921000000487047440100202DE9F041F8
:101400001F46044603260168072A01F4006004DB36
:1014100008B116A505E016A503E008B115A500E082
:1014200015A521F010002060A069C01EA0610FB1B9
:10143000401EA0612046FFF784F84FB1D4E9012196
:1014400038469047206A401C2062C01C206206E09B
:10145000206AFAE7D4E9012115F8010B9047761EBE
:10146000F8D22046FFF783F8BDE8F0814E414E00E8
:101470006E616E00494E4600696E66002DE9F047C8
:10148000814616468AB0354878440DC88DE80D006F
:1014900032487844801C03AC0DC884E80D0041F646
:1014A0009B300844372190FBF1F290FBF1F5A5F158
:1014B000800501FB12041B3C02D56442012000E0C0
:1014C0000020DFF898A080460027FA44AAF1BE0A5F
:1014D0000EE0E0070AD03246684607EB47010123D9
:1014E0000AEB810100F022FB8DE8070064107F1CED
:1014F000002CEED1194F7F44AE3F19E0E80715D01C
:1015000007EB04100DF1180A90E80E008AE80E00AF
:10151000C068F04201D1981908903246012306A90B
:1015200003A800F003FB03AB83E807006D10641C05
:10153000002DE3D14FF0010332466946B8F1000FA8
:1015400003A802D000F0DDFA01E000F0EFFAC9E9EB
:101550000001C9F808200AB0BDE8F087C8210000E2
:1015600010B50446AFF300802046BDE81040FEF7FA
:10157000BCBE000000487047240100204FF0013C31
:1015800050F8042B51F8043B9A4221D1A2EB0C03F2
:10159000934313EACC1317D150F8042B51F8043BB2
:1015A0009A4215D1A2EB0C03934313EACC130BD14F
:1015B00050F8042B51F8043B9A4209D1A2EB0C03DA
:1015C000934313EACC13DBD04FF00000704700BF09
:1015D000D01A01BAB1FA81F101F0180122FA01F032
:1015E000CB40C1F12001DBB2C0B2C01A2CFA01F32A
:1015F000D11A914311EAC311E6D17047014918206D
:10160000ABBEFEE72600020070475FEA400C08BF51
:1016100091F0000F4FEA8C234FEAC12243EA515167
:101620004FEA1C5018BF00F5F0404FEA300018BFD9
:1016300041F000415FEA6C5C00F02980BCF1FF3FA3
:1016400008BF40F080407047130C06BF12044FF0F3
:10165000100C4FF0000C130E04BF12020CF1080C1A
:10166000130F04BF12010CF1040C930F04BF92007E
:101670000CF1020CD30F04BF52000CF1010C114607
:101680004FF00002A0F11F00A0EB0C00704711F01A
:10169000004F08BF704731F000413FF4D5AF0B0C4D
:1016A00006BF09044FF0100C4FF0000C0B0E04BFE6
:1016B00009020CF1080C0B0F04BF09010CF1040C1A
:1016C0008B0F04BF89000CF1020CCB0F04BF490043
:1016D0000CF1010CCCF12003A0EB0C0022FA03F377
:1016E00002FA0CF241EA030100F10100704720F018
:1016F0007F4C80EA030023F07F47ACEB070303F540
:101700007C5300F0004003F1FF032DE980494FEACC
:10171000154B09B44FEA144325EA0B4E24EA03485B
:101720000FF2042606EB132749083E785FEA3202DF
:1017300003FB0667C7F5000707FB06F64FEA5437B9
:101740004FEAD64606F1020607FB066CCCF1005CB8
:101750004FEA1C472CEA074C07FB06F40CFB06F586
:1017600004EB15464FEA961634BF00204FF00040B8
:101770004FEAD13706FB07FC4FEA1C4C0CFB0BF77A
:10178000D21B03FB0CF761EB07010CFB0EF7B0EB70
:10179000074072EB17420CFB08F734BFA2EB07427D
:1017A000B2EB074261EB17414FEA0C444FEA910755
:1017B00006FB07FC4FEA1C4C0CFB0BF7B0EBC740D9
:1017C00072EB573203FB0CF734BFA2EBC742B2EB0C
:1017D000C74261EB57310CFB0EF7B0EBC70072EB61
:1017E00057720CFB08F734BFA2EBC702B2EBC7027B
:1017F00061EB5771039F4FEA816141EA921104EB5B
:10180000CC044FEAD1374FEA826206FB07FC42EA7A
:1018100090124FEA80604FEA1C4C0CFB0BF7D21B76
:1018200003FB0CF761EB07010CFB0EF7B0EB074075
:1018300072EB17420CFB08F734BFA2EB0742B2EB86
:10184000074261EB17414FEA8C554FEA910704EBD1
:101850009C2406FB07FC4FEA1C4C0CFB0BF7B0EB7F
:10186000C74072EB573203FB0CF734BFA2EBC74201
:10187000B2EBC74261EB57310CFB0EF7B0EBC70080
:1018800072EB57720CFB08F734BFA2EBC702B2EB46
:10189000C70261EB577115EB4C254FEA816141EAB4
:1018A00092114FEA82624FEAD13742EA901206FB68
:1018B00007FC44F100044FEA80604FEA1C4C0CFB2B
:1018C0000BF7D21B03FB0CF761EB07010CFB0EF7C8
:1018D000B0EB074072EB17420CFB08F734BFA2EBEA
:1018E0000742B2EB074261EB174115EB1C154FEABB
:1018F000813141EA92414FEA823242EA90424FEA14
:1019000080304FEA0C7644F1000448EA03434EEA83
:101910000B484FF0000EB2EB080C71EB030724BF2D
:10192000624639464EEB0E0E4FF0000B0018524146
:1019300049414BEB0B0BB2EB080C71EB03077BF14E
:10194000000B24BF624639464EEB0E0E4FF0000BE3
:101950000018524149414BEB0B0BB2EB080C71EBF9
:1019600003077BF1000B24BF624639464EEB0E0E97
:1019700051EA020718BF46F0010616EB0E7655F144
:10198000000254F1000103D5BDE88901BDE80088DB
:10199000BDE88901BDE80048B619524141EB01019B
:1019A000A3F10103704780807F7E7D7C7B7A79780C
:1019B000777676757473727171706F6E6E6D6C6C14
:1019C0006B6A6A69686867666665646463636261B6
:1019D0006160605F5F5E5E5D5D5C5C5B5B5A5A5937
:1019E00059585857575656555555545453535252A3
:1019F0005251515050504F4F4F4E4E4D4D4D4C4CFB
:101A00004C4B4B4B4A4A4A49494948484847474743
:101A10004746464645454544444444434343434280
:101A2000424242414141002B9C4630D477002BD0AA
:101A30001CB54FEA370703B44FF010004FF0100108
:101A4000BAF1000F06D0BCF1000FDCBF40F0080077
:101A500040F008014FF000000FBCBDE810400BF152
:101A6000010BBBF1010F08BF5FEA170722BF12F19C
:101A7000010211F101014FF0004143F1000300F0B8
:101A8000004043EA00007047F9D35708D0E746EA20
:101A9000064613F1400F4FEA16461FDD13F1200FE3
:101AA000DFBF16430A46002120335B42BED0C3F19C
:101AB000200746EA064602FA07F74FEA164646EAC4
:101AC0000706C3F1200722FA03F201FA07F721FA09
:101AD00003F14FF0000342EA0702A7E746EA0206D5
:101AE00046EA06464FEA164646EA0106BCBF46EA03
:101AF0000646360C4FF000034FF000024FF0000195
:101B000094E72DE9804C9A46934670B491E83800EA
:101B100007C831EA400C48BF34EA430C03D5FFF74D
:101B2000E6FDFFF780FFF0BCBDE8008C2DE9804C9E
:101B30009A46934670B491E8380007C810F0804F79
:101B400008BF13F0804F03D100F005F8FFF76BFFDB
:101B5000F0BCBDE8008C20F07F4780EA030023F052
:101B60007F4C07EB0C03A3F57C5300F00040A3F17E
:101B7000FE0392F0000F00F0B38095F0000F00F02C
:101B800077802DE901494FEA11404FEA144621EAD6
:101B9000004800FB06FC24EA064708FB06F607FBA4
:101BA00008F800FB07F718EB06484CEB164C4FEA19
:101BB000124B18EB07484FEA15464CEB174022EA48
:101BC0000B4E0BFB06FC25EA06470EFB06F607FB51
:101BD0000EFE0BFB07F71EEB064E4CEB164C4FF0C0
:101BE00000061EEB074E4CEB174B18EB0B0840F1B1
:101BF000000018EB0E0B58EB000840F100008F1AA4
:101C00004FF000013CBFC943661B14BFB5EB040C89
:101C100000213CBFC943F61B4FEA17444EEA8E0E23
:101C200027EA04454FEA1C4704FB07622CEA074CED
:101C300005FB07F70CFB05F604FB0CFC16EB07464F
:101C400042EB174216EB0C4642EB1C421BEB06061E
:101C500058EB0202414146EA9E0601D5BDE80189E2
:101C6000B619524141EB0101A3F10103BDE801891D
:101C70004FEA14454FEA114724EA054621EA074C8A
:101C800005FB07F406FB07F70CFB06F105FB0CFC54
:101C900011EB074144EB17444FEA124711EB0C419B
:101CA00044EB1C4422EA074C05FB07F206FB07F74E
:101CB0000CFB06F605FB0CFC16EB074642EB174245
:101CC00016EB0C4642EB1C456A1854F1000148BF64
:101CD0007047B619524141EB0101A3F1010370476E
:101CE00095F0000F37D04FEA11424FEA144721EA2E
:101CF000024624EA074C02FB07F106FB07F70CFB40
:101D000006F402FB0CFC14EB074441EB17414FEACD
:101D1000154714EB0C4441EB1C4125EA074C02FB30
:101D200007F506FB07F70CFB06F602FB0CFC16EBAF
:101D3000074645EB174516EB0C4645EB1C421219BE
:101D400051F1000148BF7047B619524141EB010102
:101D5000A3F1010370474FEA14454FEA114724EA03
:101D6000054621EA074C05FB07F106FB07F70CFBCC
:101D700006F24FF0000605FB0CFC12EB074241EBAC
:101D8000174112EB0C4251EB1C4148BF70479218AF
:101D900041EB0101A3F101037047000070B50B4D49
:101DA0002C680BA0214601F0CBFA84F30888686800
:101DB00040F0010421460CA001F0C2FA12A001F08B
:101DC000BFFAA446BDE870406047000000800008EC
:101DD00053657474696E67204D535020746F2030C2
:101DE0007825580D0A00000052657365742048611B
:101DF0006E646C657220416464726573733A20305E
:101E00007825780D0A0000004A756D70696E6720AC
:101E1000746F2055534552204150502E2E2E0D0ADE
:101E200000000000224C4FF0FF3564212048FEF7EF
:101E30005EFB20A001F084FA1D492B460122A1F18E
:101E4000880000F0BBFE1A4822782B46611C8838B7
:101E500000F0B4FE61781BA001F072FA6178A1F184
:101E600051000C2820D2DFE800F0070B0F13171BDE
:101E7000060606060606D8E70D4801F003FAD4E781
:101E80000B4801F0ADF9D0E7094801F081F9CCE742
:101E9000074801F0CFF9C8E7054801F017FAC4E791
:101EA000034801F0C7F8C0E70CA001F049FABCE70D
:101EB000A0000020456E74657220436F6D6D616EE9
:101EC000640D0A005258656420436D6420436F64BA
:101ED000653A20307825780D0A000000494E5641B9
:101EE0004C494420434F4D4D414E443A20307825D3
:101EF000780D0A00FEE77047002229B101291DD0A4
:101F000002291ED04FF440720B2800D9001D0E4943
:101F10000B6823F440730B600B6813430B600A6873
:101F200022F0F8020A600A68022303EBC0000243B1
:101F30000A60086840F48030086070474FF480728F
:101F4000E2E74FF40072DFE7103C024013480168FB
:101F500089050FD5016821F400710160016841F421
:101F600000610160016821F400610160016841F4D1
:101F700000710160016849050FD5016821F4806195
:101F80000160016841F480510160016821F48051D1
:101F90000160016841F4806101607047003C0240CB
:101FA0000E4A136823F44073136003290DD00129EE
:101FB00011680FD041F40041116011684FF4803373
:101FC00043EA0020014311607047116848F204039E
:101FD0001943F1E741F00401EEE70000103C024034
:101FE0001C490868C2061C4805D5C26942F01002A7
:101FF000C26110220A600A68920605D5C26942F0E1
:102000000802C26120220A600A68520605D5C26928
:1020100042F00402C26140220A600A68120605D535
:10202000C26942F00202C26180220A600A68D205D7
:1020300006D5C26942F00102C2614FF480720A60A3
:102040000A68920705D5C26942F02002C2610220E7
:10205000086070470C3C02400401002070B5114933
:1020600004460020C86100F0D9F906460E4D09E08B
:10207000601C07D024B100F0D1F9801BA04201D927
:10208000032070BD2868C003F2D42868C00701D0BF
:1020900001202860286810F4F970F2D0FFF7A0FF43
:1020A000012070BD040100200C3C024010B504006A
:1020B00002D0607910B106E0012010BD002020712F
:1020C000204600F005F801206071002010BD0000DE
:1020D00008B500680649884208D10648016841F4FD
:1020E00080510160006800F48050009008BD00003D
:1020F00000300240303802402DE9F04704462348C2
:102100000F46017E01290AD00121804601764CF25A
:1021100050394846FFF7A2FF020003D030E002200A
:10212000BDE8F0874FF0FF3038602068184D012877
:1021300001D0A6681DE0207C6168FFF731FF4846AA
:10214000FFF78CFF0246286848F2040188432860A4
:1021500014E0217C3046FFF7CFFE4846FFF77EFFB4
:102160000200286820F0FA00286001D03E6005E0F7
:10217000761CD4E902100844B042EAD8FFF7E6FE24
:10218000002188F818101046CAE70000040100205A
:10219000103C02400348016841F00041016000200A
:1021A00070470000103C0240074900200A68002ADE
:1021B00009DA054A054B0C3A1360054B13600968B0
:1021C000002900DA01207047103C024023016745D6
:1021D000AB89EFCD2DE9F84FDFF8F8A100220124FB
:1021E00003254FF00F090AF1040BAAF1040E00BFFA
:1021F0000B6804FA02F63340B34270D10F7907F04E
:102200000307012F01D0022F16D187684FEA420839
:1022100005FA08FC27EA0C07D1F80CC00CFA08FCF8
:102220004CEA070CC0F808C04768B7430E79C6F3FC
:10223000001696403E4346600E79F643B6070AD034
:10224000C7684FEA420C05FA0CF6B7438E6806FAE7
:102250000CF63E43C6600E7906F00306022E10D13E
:10226000D60800EB8608D8F8206057074FEAD76CED
:1022700009FA0CF7BE430F6907FA0CF73743C8F8A1
:10228000207006684FEA420C05FA0CF7BE430F793E
:1022900007F0030707FA0CF7374307604E6816F498
:1022A000403F1CD04C4E376847F480473760366853
:1022B00022F0030706F480460096484E07EB060C12
:1022C000DCF8086897073F0F09FA07F826EA0806BE
:1022D000DFF80C81404503D14FF0000841E072E087
:1022E000DFF80081404502D14FF0010839E0DFF806
:1022F000F880404502D14FF0020832E0DFF8EC8070
:10230000404502D14FF003082BE0DFF8E480404560
:1023100002D14FF0040824E0DFF8D880404502D114
:102320004FF005081DE0DFF8D080404502D14FF0A6
:10233000060816E0DFF8C480404502D14FF00708D8
:102340000FE0DFF8BC80404502D14FF0080808E0FC
:10235000DFF8B080404502D14FF0090801E04FF0AE
:102360000A0808FA07F848EA0608CCF80888DAF8F4
:1023700000605746D1F804C09E435FEACC2C00D5DC
:102380001E433E60DBF800605F46D1F804C09E4308
:102390005FEA8C2C00D51E433E60DEF80060774675
:1023A000D1F804C09E435FEA8C3C00D51E433E60DA
:1023B000084F083F3E68D1F804C09E435FEACC3C1A
:1023C00000D51E433E60521C102AFFF411AFBDE839
:1023D000F88F0000083C01404438024000300140C2
:1023E000000002400004024000080240000C0240CD
:1023F000001002400014024000180240001C02407D
:1024000000200240002402400069084000D0012062
:1024100070470AB1816170470904FBE70148806891
:1024200070470000080000200248816802781144CB
:1024300081607047080000200B4810B5016841F426
:1024400000710160016841F480610160016841F43C
:1024500080710160032000F061F80F2000F006F8A1
:1024600000F024F8002010BD003C024070B50D4D76
:1024700004464FF47A712878B1FBF0F00A490968F4
:10248000B1FBF0F000F0FEFA48B9102C07D20022A0
:102490002146501E00F022F800206C6070BD012023
:1024A00070BD000008000020140000200A4808B594
:1024B000016841F480410160006800F480400090B0
:1024C0000548001F016841F080510160006800F07C
:1024D0008050009008BD000044380240F0B40E4B1C
:1024E0001B680C46C3F30223C3F10705042D00D972
:1024F0000425191D072901D2002300E0DB1E012657
:1025000006FA05F1491E214099409E40761E16406C
:102510003143F0BC00F077BD0CED00E0064900F05F
:10252000070208684FF6FF03184040EA0220034AFA
:1025300010430860704700000CED00E00000FA0551
:102540002DE9F0470E46050065D0DFF81481D8F874
:102550000000F7B200F00F00B04207D288F8007018
:10256000D8F8000000F00F00B04254D128683D4C6C
:10257000810712D5400703D5206840F4E050206061
:102580002878000703D5206840F460402060206868
:10259000A96820F0F000084320602878C0072DD0FB
:1025A000304968680839012812D0022813D003285E
:1025B00011D00968890700292DDA216821F003016B
:1025C00001432160FFF72AFF814641F2883A0EE07D
:1025D00009688903EFE709688901ECE7FFF71EFF47
:1025E000A0EB0901514502D90320BDE8F08720681E
:1025F000696800F00C00B0EB810FEFD1D8F8001043
:10260000404601F00F01B14207D90770006800F0A1
:102610000F00B04201D00120E7E72878400705D538
:102620002068E96820F4E05008432060287800071B
:1026300006D52068296920F4604040EAC100206086
:1026400000F038F82168084AC1F30311515CC84012
:102650000649086006480068FFF708FF0020C4E745
:10266000003C0240083802405635000814000020A3
:102670000C0000200448054900680968044AC1F3B9
:102680008221515CC8407047140000200838024085
:10269000663500080448054900680968044AC1F322
:1026A0004231515CC8407047140000200838024095
:1026B00066350008154810B5006810F00C02144883
:1026C00013D01449042A0FD0082A0ED10F4C241F0E
:1026D0002268236802F03F025B0207D52068C0F33E
:1026E0008810A0FB010106E0084610BD2168C1F377
:1026F0008811A1FB00010023FDF71EFE2168C1F334
:102700000141491C4900B0FBF1F010BD08380240FE
:102710000024F40040787D012DE9F84F04006ED0CC
:102720002078DFF84C93C007A9F104054AD009F1DD
:1027300004000168C1F38101012908D00068C0F3D9
:10274000810002280AD1D9F80000400206D5286885
:10275000800337D560680028E1D033E06068B0F5C9
:10276000803F10D0B0F5A02F286810D020F4803022
:102770002860286820F4802028606068A8B1FFF7EE
:102780004DFE06460DE0286840F48030F4E740F442
:1027900080202860F7E700BFFFF740FE801B642819
:1027A00073D828688003F7D50CE0FFF737FE06469C
:1027B00005E000BFFFF732FE801B6428F0D82868D0
:1027C0008003F7D42078DFF8AC8280074FF0000A4E
:1027D0003ED5A748001D016811F00C0F08D0006815
:1027E000C0F3810002280BD1D9F80000400207D4C1
:1027F0002868800716D5E068012800D112E033E18F
:10280000E068B8B10120C8F80000FFF707FE0646EF
:1028100005E000BFFFF702FE801B0228C0D8286831
:102820008007F7D52868216920F0F80040EAC10048
:1028300028600DE0C8F800A0FFF7F0FD064604E0B0
:10284000FFF7ECFD801B02281FD828688007F7D40B
:102850002078000722D5864F87486169703771B1AB
:1028600001210160FFF7DAFD064604E0FFF7D6FD1F
:10287000801B022809D838688007F7D50EE0C0F819
:1028800000A0FFF7CBFD064605E082E0FFF7C6FD9E
:10289000801B02287DD838688007F7D4207840074D
:1028A00068D5DFF8CCB100270BF13C0BDBF800005A
:1028B000C0000BD4DBF8001041F08051CBF80010C1
:1028C000DBF80000012700F0805000906B4E30686C
:1028D000C00510D4306840F480703060FFF79EFD72
:1028E000009005E0FFF79AFD0099401A022850D8A1
:1028F0003068C005F6D55E4EA0686C3601280FD052
:102900000528306810D020F001003060306820F0D9
:1029100004003060A068B8B1FFF780FD00900FE0C0
:10292000306840F00100F4E740F004003060F7E761
:10293000FFF774FD0099411A41F28830814266D850
:1029400030688007F4D50EE0FFF768FD009007E0DF
:10295000FFF764FD0099411A41F28830814256D850
:1029600030688007F4D42FB1DBF8001021F08051DB
:10297000CBF80010A069C8B33D49091D0968C1F32F
:10298000810102294AD00228504607D0C8F86000C9
:1029900000E03CE0FFF742FD04463BE04746C8F854
:1029A0006000FFF73BFD064605E000BFFFF736FD80
:1029B000801B02282BD828688001F7D4D4E90701AE
:1029C0000843A16A2E4A490802EB0141626A41EAC2
:1029D0008211084394F82C1040EA0161C9F80010F4
:1029E00001203866FFF71AFD044606E03EE000BF0E
:1029F000FFF714FD001B022809D828688001F7D5CD
:102A000034E000BFFFF70AFD001B022802D90320B3
:102A1000BDE8F88F28688001F4D427E00128F7D0BA
:102A2000D9F80000E26900F4800191421CD1226AC9
:102A300000F03F01914217D147F6C071626A014030
:102A4000B1EB821F10D1A26A4FF0FF3300F4403186
:102A500003EB5202B1EB024F06D194F82C1000F0B8
:102A60007060B0EB016F01D00120D1E70020CFE70B
:102A70000438024000004742800E47420070004088
:102A80000000FFFF10B5401EB0F1807F01D3012090
:102A900010BD4FF0E02460610F21601700F0B3FA21
:102AA0000020A06107202061002010BD70B5040047
:102AB00004D094F83D00002510B106E0012070BD5F
:102AC00084F83C50204600F023F8242084F83D0090
:102AD0002068C16821F40051C160204600F0B8F9B7
:102AE0002068016921F4904101612068416921F069
:102AF0002A0141612068C16841F40051C160256428
:102B0000202084F83D0084F83E00002070BD0000C5
:102B100070B586B0044614216846FDF7E8FC224EE5
:102B2000226800212148022303240725B2421AD13A
:102B30001E4A1432166846F010061660126802F03B
:102B400010020592026842F001020260006802AAC7
:102B500000F00100059082E832006002CDE9000338
:102B6000694613481CE0134EB2421BD10F4A103283
:102B7000166846F400361660126802F400320592B8
:102B8000026842F008020260006802AA00F0080031
:102B9000059082E832006020CDE9000369460648CE
:102BA000FFF718FB06B070BD00100140303802403E
:102BB0000000024000440040000C02402DE9F84FA4
:102BC000044690F83E009A4616460D46202853D1FA
:102BD000FDB1F6B194F83C0001284DD0012084F8F5
:102BE0003C0000272764222084F83E002763FFF77B
:102BF00015FCA6858146E685A0684FF480584045BF
:102C000001D1206940B12E465FF0000584F83C7088
:102C100027E00120BDE8F88F0026F7E74B460022A9
:102C200020212046CDF800A000F098F908B103203B
:102C3000F0E726B1A06840451BD038B108E0206815
:102C40004068C0F3080025F8020B07E0206980B156
:102C50002068406800F07F0006F8010BE08D401E00
:102C6000E085E08D0028D9D1202084F83E000020A6
:102C7000D0E720684068EFE70220CBE72DE9F84372
:102C8000044690F83D001F4616460D4620284CD1BC
:102C9000C5B1BEB194F83C00012846D0012084F8AB
:102CA0003C004FF00008C4F84080212084F83D002B
:102CB000FFF7B4FBA6848146E684A068B0F5805F88
:102CC00003D004E00120BDE8F883206928B12E4636
:102CD0005FF0000584F83C800EE00026FAE78021D2
:102CE000204600F03BF9A0B9AEB116F8010B2168FF
:102CF0004860E08C401EE084E08C4B464FF00002C0
:102D000000970028EBD14FF04001204600F026F953
:102D100030B10320D7E735F8020BC0F30800E6E72F
:102D2000202084F83D000020CDE70220CBE7FEE71D
:102D3000F0B587B014216846FDF7D9FB1A48002486
:102D4000016841F001010160016801F00101059194
:102D5000016841F008010160016801F00801059176
:102D6000016841F0400101600068104F00F0400030
:102D70004FF4C0460590002231463846FFF749FB24
:102D80000125CDE90054694609480294FFF722FA6B
:102D90000220CDE90204CDE9006569463846FFF717
:102DA00019FA07B0F0BD00003038024000180240A8
:102DB00000000240FEE7FEE770477047FFF734BBB4
:102DC00010B592B030216846FDF791FB14210CA894
:102DD000FDF78DFB18480024016841F08051016027
:102DE000006800F0805011901448016821F44041BF
:102DF00041F4804101600068069400F44040119065
:102E00000220009001200390102004906846FFF7F4
:102E100083FC08B172B6FEE70F20CDE90C040E94D6
:102E20000F9400210CA81094FFF78AFB002801D012
:102E300072B6FEE712B010BD40380240007000408C
:102E40000248016841F470010160704788ED00E0BC
:102E500070B5044600680169E26821F440511143ED
:102E600001612169A068E26908436169114308436F
:102E70002168CA6849F20C639A430243CA60206819
:102E80004169A26921F440711143416131492068CF
:102E9000884202D03049884202D1FFF7FBFB01E0B3
:102EA000FFF7E8FBE2690023192164253226B2F519
:102EB000004F626828D0A0FB0101930F9200FDF73C
:102EC0003BFA0146B0FBF5F06FF01802504301EBFE
:102ED000800006EB0010B0FBF5F000F0F002B1FB53
:102EE000F5F002EB0012B1FBF5F06FF01803584358
:102EF00001EB800006EB0010B0FBF5F000F00F00D6
:102F000021681044886070BDA0FB010192185B41EC
:102F1000FDF712FA0146B0FBF5F00201B1FBF5F046
:102F20006FF01803584301EB800006EBC000B0FBC4
:102F3000F5F000F0F80002EB4002B1FBF5F0584369
:102F400001EB800006EBC000B0FBF5F000F00700DD
:102F5000D6E7000000100140001401402DE9F041C7
:102F6000984617460E460446069D27E0681C25D065
:102F70002DB1FFF753FAA0EB0800A8421ED9206834
:102F80000C3050E8001F21F4D07140E80012002AF4
:102F9000F5D12068143050E8001F21F0010140E80D
:102FA0000012002AF5D1202084F83D0084F83E006C
:102FB000002084F83C000320BDE8F0812068006810
:102FC00036EA000004D00020B842CFD00020F3E75A
:102FD0000120F9E7FEE703B401984100009850EAA8
:102FE000C12018BF04204A0D18BF40F0010040F274
:102FF000FF72B2EB515F08BF40F00200012808BF2A
:10300000052002B070470907090E002804DB00F113
:10301000E02080F80014704700F00F0000F1E0207D
:1030200080F8141D704730380A2801D201207047FB
:1030300000207047F0B5054687B020A000F080F969
:10304000012000F0CDF9AC78ED7800260127069636
:103050008DF81470FF2C10D06019182825D823A0E3
:1030600000F06EF92A46214625A000F069F90220F9
:1030700000960294CDE9035005E02CA000F060F921
:103080000320CDE90070FFF78FF82EA000F058F96B
:1030900006A96846FFF730F88DF8140001462EA007
:1030A00000F04EF9FFF776F802E032A000F048F9A0
:1030B000012105A800F0A4F907B0F0BD72656163B5
:1030C0006865643A20626F6F746C6F616465725FEB
:1030D00068616E646C655F666C6173685F65726180
:1030E00073655F636D640D0A0000000045726173D3
:1030F000696E6720736563746F72732E2E0D0A00FC
:10310000466972737420736563746F723A20256424
:103110002C206E756D626572206F66207365637416
:103120006F72733A2025640D0A00000050657266C4
:103130006F726D696E67204D415353204552415364
:10314000450D0A00426567696E2045726173652E00
:103150002E2E0D0A00000000457261736520446F39
:103160006E652E205374617475733A20307825781B
:103170000D0A0000494E56414C49442053454354E2
:103180004F522043484F4943452121210D0A000059
:1031900008B508A000F0D4F810480068C0F30B0090
:1031A000ADF80000022000F01BF90221684600F093
:1031B00027F908BD726561636865643A20626F6FC4
:1031C000746C6F616465725F68616E646C655F6783
:1031D00065746369645F636D640D0A00002004E038
:1031E00008B509A000F0ACF8002000906846FDF793
:1031F0002DF9C0B200F0F4F86846FDF727F9014652
:10320000684600F0FDF808BD726561636865643A60
:1032100020626F6F746C6F616465725F68616E6469
:103220006C655F67657468656C705F636D640D0ADB
:103230000000000008B508A000F082F810480068FF
:10324000000A8DF80000012000F0CAF8012168464C
:1032500000F0D6F808BD0000726561636865643AE5
:1032600020626F6F746C6F616465725F68616E6419
:103270006C655F6765747264705F636D640D0A00EE
:10328000143C024008B507A000F05AF8012000F0F5
:10329000A7F810208DF800000121684600F0B0F872
:1032A00008BD0000726561636865643A20626F6FF3
:1032B000746C6F616465725F68616E646C655F6792
:1032C00065747665725F636D640D0A0038B50446F7
:1032D000012000F085F800208DF8000001216846EB
:1032E00000F08EF806A000F02BF8D4F8020040F0B1
:1032F000010421460BA000F023F8A04738BD0000D0
:10330000726561636865643A20626F6F746C6F61A7
:103310006465725F68616E646C655F676F5F636D43
:10332000640D0A004A756D70696E6720746F2061C4
:103330006464726573733A20307825780D0A000052
:103340000FB410B5ACB02FAA1FA82E99FDF76CF8DA
:1033500026221A490EA8FDF798F8184CE08CADF813
:103360005E00A4F14400C16E1891B0F87000ADF891
:103370006400E08DADF86600206B1A90092204F11C
:1033800034011BA8FDF781F894F83D008DF8750015
:1033900094F83E008DF87600206C1E901FA80D90CA
:1033A000342212A96846FDF770F80EAC94E80F00BD
:1033B00000F006F82CB010BC5DF814FB5C00002097
:1033C0000FB410B5139C2046FDF740F882B24FF0C1
:1033D000FF33214602A8FFF751FC10BC5DF814FB37
:1033E00008B5A5218DF800108DF801004FF0FF33CE
:1033F000022269460148FFF741FC08BD1800002081
:103400008AB201464FF0FF330148FFF737BC000096
:1034100018000020FFF710F8FFF7D2FCFFF788FC38
:10342000234822494FF4E13500240160C0E90154EA
:103430000C26C460C0E904468461C461FFF736FB12
:1034400008B172B6FEE71A481A4944300160C0E973
:103450000154C460C0E904468461C461FFF726FBDF
:1034600008B172B6FEE71549134808600846FEF732
:103470001DFE08B172B6FEE7114C01212046FEF791
:10348000C3FF20B10FA0FFF75BFFFEF7CBFC12A03C
:10349000FFF756FFFEF782FCFEF7C0FF00F5FA7556
:1034A000FEF7BCFFA842FBD3E7E700000010014095
:1034B00018000020004400400030024000000020BE
:1034C00000000240427574746F6E207072657373F1
:1034D00065640D0A00000000427574746F6E2072FE
:1034E000656C65617365640D0A00000010B5002904
:1034F0000AD00878002807D005487844FEF73EF83F
:10350000002801D0002010BD0248784410BD000002
:10351000920100008A01000010B500290AD0087845
:10352000002807D005487844FEF728F8002801D085
:10353000002010BD0248784410BD00008201000048
:103540007A0100004FF04070E1EE100A7047FDF77D
:1035500022BCFDF757BD0000000000000000010282
:10356000030406070809000000000102030400002C
:1035700000000000000000003031323334353637AF
:1035800038394142434445464030580030313233A7
:1035900034353637383961626364656640307800A7
:1035A000040000080000000000000002000100000C
:1035B00010303132333435363738396162636465FF
:1035C000667870003031323334353637383941421D
:1035D000434445465850000002400000000000A04F
:1035E0000000000005400000000000C800000000CE
:1035F0000C4000000000409C00000000194000004A
:103600000020BCBE0000000034400000BFC91B8E7B
:1036100000000004B5400000504BCFD06607E2CF59
:10362000010000006C4100003E8251AADFEEA73489
:1036300001000000D9420000DCB5A0E23A301F973B
:10364000FFFFFFFFB4450000FD25A0C8E9A3C14F5F
:10365000FFFFFFFFFF3F00000000008000000000B0
:10366000FF3F00000000008000000000B8370008A5
:103670000000002018000000E8010008D037000812
:103680001800002070070000040200081C00000061
:1036900043000000F8FFFFFF0C0000000E000000D8
:1036A0000F0000002E000000100100004300000089
:1036B000F8FFFFFF00404040404040404040414153
:1036C00041414140404040404040404040404040F7
:1036D0004040404040050202020202020202020291
:1036E000020202020220202020202020202020028E
:1036F000020202020202909090909090101010101E
:1037000010101010101010101010101010101010B9
:10371000020202020202888888888888080808084D
:103720000808080808080808080808080808080819
:103730000202020240000000000000000000000041
:103740000000000000000000000000000000000079
:103750000000000000000000000000000000000069
:103760000000000000000000000000000000000059
:103770000000000000000000000000000000000049
:103780000000000000000000000000000000000039
:103790000000000000000000000000000000000029
:1037A0000000000000000000000000000000000019
:1037B0000000000000000000000000000000000009
:1037C0000100000010000000000000000024F400D0
:04000005080001AD41
:00000001FF
