:020000040800F2
:10000000E8070020010300082D340008E33200084F
:1000100029340008E9200008AB3700080000000080
:100020000000000000000000000000003334000861
:10003000ED200008000000003134000835340008CD
:100040001B0300081B0300081B0300081B03000818
:100050001B0300081B0300081B0300081B03000808
:100060001B0300081B0300081B0300081B030008F8
:100070001B0300081B0300081B0300081B030008E8
:100080001B0300081B0300081B0300081B030008D8
:100090001B0300081B0300081B0300081B030008C8
:1000A0001B0300081B0300081B0300081B030008B8
:1000B0001B0300081B0300081B0300081B030008A8
:1000C0001B0300081B0300081B0300081B03000898
:1000D0001B0300081B0300081B0300081B03000888
:1000E0001B0300081B0300081B0300081B03000878
:1000F0001B0300081B0300081B0300081B03000868
:100100001B0300081B0300081B0300081B03000857
:100110001B0300081B0300081B0300081B03000847
:100120001B0300081B0300081B0300081B03000837
:100130001B0300081B0300081B0300081B03000827
:100140001B0300081B0300081B0300081B03000817
:100150001B0300081B0300081B0300081B03000807
:100160001B0300081B0300081B0300081B030008F7
:100170001B0300081B0300081B030008000000000D
:100180001B0300081B0300081B0300081B030008D7
:100190001B0300081B0300081B0300081B030008C7
:1001A0001B0300081B0300081B03000800F002F8F3
:1001B00000F096F80AA090E8000C82448344AAF16B
:1001C0000107DA4501D100F08BF8AFF2090EBAE869
:1001D0000F0013F0010F18BFFB1A43F0010318477B
:1001E00090440000B0440000103A24BF78C878C1A1
:1001F000FAD8520724BF30C830C144BF04680C602D
:10020000704700000023002400250026103A28BF74
:1002100078C1FBD8520728BF30C148BF0B60704778
:100220006E2900F0D982702900F01B84662904F041
:100230009081652904F08D81672904F08A81612904
:1002400004F0898103681B0A28BF41F080016929F5
:1002500000F08682642900F08382752900F0808294
:100260006F2900F0A883782900F0E783E92900F0DE
:100270004383E42900F04083F52900F03D83EF2912
:1002800000F0A583F82900F0E6830368DB0928BFA6
:1002900041F08001632901F00781732901F00C818D
:1002A000E32901F01781F32901F01C810020704738
:1002B0001FB504F049F99DE8030000F0B9F901F019
:1002C0006BF904000020002104F028F9401C606054
:1002D0000020002104F00CF9E0601FBD10B510BD36
:1002E00001F02CF91146FFF7E3FF03F0B7FF01F02F
:1002F00009FA03B4FFF7F2FF03BC01F039FA00007A
:100300000948804709480047FEE7FEE7FEE7FEE7A9
:10031000FEE7FEE7FEE7FEE7FEE7FEE704480549E5
:10032000054A064B70470000D9340008AD010008AB
:10033000E8010020E8070020E8030020E80300208F
:1003400070B5064600F058F9056806F10B0020F07C
:100350000704B4429CBF002070BD2B466A68BAB146
:100360001068A04210D304F1080188423CBF5068D5
:10037000586007D35168101941601168091B01606A
:1003800058601460101D70BD13465268002AE7D1F2
:100390002146284600F038F90028DED170BD70B53E
:1003A0000446051F00F028F90068002C14BF4468BB
:1003B00070BD002C18BFAC423CBF20466468F8D327
:1003C00001680A18AA4218BF456003D12A68054689
:1003D0001144016028684119A1421CBF6C6070BDC6
:1003E0006168696021680844286070BD53EA020CA6
:1003F00000F069802DE9F04B4FF00006002B1FBF85
:10040000B3FA83F503FA05F424FA05F65E4012BF49
:100410001643B2FA82F502FA05F4C5F120051EBFB3
:1004200022FA05FC44EA0C04203556EA044C4FEA53
:10043000144418BF641C4FF000084FF000099042AC
:1004400071EB030C39D3002919BFB1FA81F701FA16
:1004500007F6B0FA80F700FA07F6C7F120071EBFCB
:1004600020FA07FC46EA0C062037B6FBF4FCA7EBA3
:100470000507103F07F01F0BCBF120060CFA0BFB12
:100480002CFA06F644BFB3460026202FA4BF5E46D2
:100490004FF0000B5BEA060C08BF4FF0010B19EBA5
:1004A0000B09ABFB027C48EB0608C01B06FB02CC29
:1004B0000BFB03CC71EB0C01C1E70B460246414636
:1004C0004846BDE8F08B13B54FF000004FF0000137
:1004D000AFF30080BDE81C40704700001CB50C461F
:1004E000064B7B4469460090204600F08EF9044696
:1004F0000020694600F09CF920461CBD4B0300001B
:1005000010B5431C02E010F8011B71B18107FAD14C
:100510004FF0013202C88C1A8C4314EAC211F9D090
:10052000C01A0A0603D0C01E10BDC01A10BD0A04AE
:1005300001D0801E10BD0902FCD0401E10BD10B5B8
:10054000203AC0F00B80B1E81850203AA0E81850CB
:10055000B1E81850A0E81850BFF4F5AF5FEA027C8C
:1005600024BFB1E81850A0E8185044BF18C918C0FB
:10057000BDE810405FEA827C24BF51F8043B40F89C
:10058000043B08BF7047D20728BF31F8023B48BF81
:1005900011F8012B28BF20F8023B48BF00F8012BBF
:1005A00070474FF0000200B5134694469646203936
:1005B00022BFA0E80C50A0E80C50B1F12001BFF41C
:1005C000F7AF090728BFA0E80C5048BF0CC05DF882
:1005D00004EB890028BF40F8042B08BF704748BFD0
:1005E00020F8022B11F0804F18BF00F8012B704744
:1005F0007047704770470000004870479001002026
:10060000704770477047704738B504460A46002067
:100610006946AFF30080002808BF38BD0246009944
:10062000204600F0F1FA012038BD012000F07EBF25
:10063000F8B5AFF30080054600200C46102000BF3F
:100640000646A819A0420DD9324669460020AFF3EC
:100650000080070008BF00F069FF0098A04218BFA3
:100660000546C419FFF7C8FF05600746F01D20F0D6
:1006700007004619284600F00AF8B44208BFF8BD42
:10068000A21B31463868BDE8F84000F0BDBA002131
:100690000160C0E9011070471020704770B5044632
:1006A00085690068C10601D5302600E02026C00714
:1006B00007D070BDD4E9012130469047206A401C24
:1006C00020626D1EF6D570BD70B504468569007850
:1006D000C00707D170BDD4E9012120209047206ACE
:1006E000401C20626D1EF6D570BD09684A0501D513
:1006F00040B27047C905FCD500B2704709684A0589
:1007000001D5C0B27047C905FCD580B2704770B53D
:100710000C460546012A05D02878800600D5EA69EE
:10072000002302E0012305E05B1C934202D2E05C5F
:100730000028F9D1A869E618C01AA861286A1844E7
:1007400028622846FFF7AAFF04E0D5E9012114F842
:10075000010B9047B442F8D32846FFF7B5FF70BDB0
:100760002DE9F0410646002410687529314616A58A
:1007700010D0FFF7BAFF002802DA404213A507E0C5
:1007800031688A0701D512A502E0490704D511A5F1
:10079000012401E0FFF7B2FF00210A2206F124073D
:1007A00009E0B0FBF2FCB0FBF2F302FB1C003030BE
:1007B00078541846491C0028F3D123462A4630466F
:1007C000BDE8F04100F07FBA000000002D000000FD
:1007D0002B0000002000000011680268006A530529
:1007E00001D508700AE0D30501D5088006E013069C
:1007F00003D5C217C1E9000200E00860012070477C
:1008000001694A1C02610878704700B58FB0CDE9D4
:1008100001310021059105497944CDE903101146C4
:10082000684600F029F90FB000BD0000E5FFFFFFAA
:100830000A6802F8010B0A60704700002DE9FF5FAB
:1008400015468A460446DFF8AC80F8440027D8E90C
:1008500000103E46CDE9001010E03AF816106A4646
:1008600002A800F043FE411C07D02178890603D579
:10087000E269391891420DD80744761C2078800629
:1008800002D5E069B84205DDAE42E6DB3AF8160073
:100890000028E2D1A069C01BA0612046FFF7FEFE40
:1008A000D8E90010CDE90010002017E03AF8181040
:1008B0006A4602A800F01AFEB0F1FF3F81460BD055
:1008C00000250DF1080B05E0D4E901211BF8050016
:1008D00090476D1C4D45F7D308F10100B0428046AA
:1008E000E4DB206A384420622046FFF7EDFEBDE8D5
:1008F000FF9F0000263D00002DE9F0418046D21DFB
:1009000022F007020025D2E90002F52915A614D02D
:10091000011E72F1000106DA0023D0EB030063EB45
:10092000020211A608E0D8F800108B0701D50FA627
:1009300002E0490701D50EA601251146002408F161
:10094000240704E000F07AF930323A55641C50EA8A
:100950000102F7D12B46324621464046BDE8F04120
:1009600000F0B1B9000000002D0000002B000000D5
:100970002000000030B4002100F1240408E002F05F
:100980000705D208303542EA4372DB086554491C3A
:1009900052EA0305F3D10468002310A2250707D506
:1009A000A40600D421B1C46901230DA2641EC46150
:1009B00030BC00F088B910B5044621461068FFF736
:1009C0009DFE02462046BDE810400023D2E7D21D1E
:1009D00022F00701D1E90023CCE70000000000006D
:1009E00030000000F0B40D460188090502D5214C05
:1009F0007C4402E01F4C7C440E34002100F12406AC
:100A000008E002F00F071209E75D42EA03721B09D2
:100A10007754491C52EA0307F3D1027800231207E6
:100A200004D5702D06D009B1022311342246F0BC42
:100A300000F049B901231034F8E770B504460D46BB
:100A400021461068FFF75AFE024629462046BDE8B7
:100A500070400023C6E7D21D22F00703D3E900232C
:100A6000C0E70368126843F0200303600823C361F2
:100A70000023B7E7883B00002DE9F05F8946044674
:100A80004FF0000ADFF874B1FB44C0F820A0204604
:100A9000E1688847002874D0252806D0D4E90121D0
:100AA0009047206A401C2062F1E700265F462046FE
:100AB000E16888472028054607DB312D05D27819E3
:100AC00010F8200C08B10643F1E7B00701D526F075
:100AD0000406C4F81CA00027C4F818A02A2D09D0C9
:100AE000284602F099FE38B304EB8708303DC8F879
:100AF000185019E059F8041B204604EB8702916155
:100B0000E1688847012F054618D1E069002820DAFE
:100B100026F020061DE0D8F8180000EB800005EB59
:100B200040003038C8F818002046E168884705467C
:100B300002F072FE0028EED1012F0AD02E2D08D12E
:100B40002046E16888477F1C0546022F46F02006B4
:100B5000C4DBA069002803DA404246F00106A06128
:100B6000F00701D026F010066C2D0BD0682D09D0AF
:100B70004C2D39D06A2D35D0742D35D07A2D33D007
:100B800016E038E0E1682F4620468847B84205461F
:100B900009D16C2F26D04FF48060E16806432046CF
:100BA0008847054604E06C2F1AD04FF48070064346
:100BB0000DB3A5F14100192802D8203546F400668E
:100BC0004A462946204626604E46FFF729FB80B15B
:100BD00001280BD0F61D26F0070000F1080956E7A2
:100BE0004020E4E78020D8E70020D6E706F104099A
:100BF0004DE7284652E7206ABDE8F09F183B000009
:100C00000048704788010020034640688C46002851
:100C100018BF88423CBF03464068F8D318681844A0
:100C2000884207D00CF1030020F00700001D411A94
:100C3000521A0146081D0A60FFF7B1BB30B5B0F18A
:100C40000A024FEA900E71F100034EEA817EB0EB8A
:100C50000E0061EB91014FEA101E4EEA017E10EB8F
:100C60000E0041EB11114FEA102E4EEA016E10EB0F
:100C70000E0041EB11214FEA104E4EEA014E10EBEF
:100C80000E0041EB1141401841F100014FEAD00044
:100C900040EA41704FEAD10110EB80054FEA810430
:100CA00044EA907444EB01046D1944EB0404521BB4
:100CB000A3414FF0000348BF0A3200D530BD401CAD
:100CC00041F1000130BD2DE9F0470D4699469246AD
:100CD000044600F124080168880604D5E06921F083
:100CE0001001216000E00120A84201DD471B00E067
:100CF0000027A1697A1902EB0900081AA06120787F
:100D0000C00602D42046FFF7C9FC002608E0D4E95B
:100D100001211AF806009047206A401C761C2062C8
:100D20004E45F4DB2078C0060AD52046FFF7B6FC16
:100D300006E0D4E9012130209047206A401C20625F
:100D4000381EA7F10107F4DC07E0D4E9012118F807
:100D500005009047206A401C2062281EA5F101056D
:100D6000F3DC2046FFF7B0FC2078000602D5022015
:100D7000BDE8F0870120FBE770472DE9FF4F0C46E7
:100D80001E464FF0FF378BB0D2E90001DDF86080DE
:100D90000A908A46C1F30A5505B93D460021084626
:100DA0004FF00000BAF1000F00F4400005DA00EB4C
:100DB00080004FF4400101EA50004FEA9059B9F128
:100DC000010F00DDB9460A9850EA4A000ED044F6F9
:100DD0001050A5F2FF3545432F14B8F1000F1ED077
:100DE0007542291E1EDDC9F100021CE0B8F1010F99
:100DF0004FF0000001D0302103E0F24305E0215420
:100E0000401CB042FBDB30460022002121540B99EC
:100E1000C1F80880C1E900200FB0BDE8F08FBD1B0C
:100E20006D1CDEE74A4600DA694206A800F0F8FBCE
:100E300006AB93E8070003AB83E8070050460A9926
:100E400000F0FDFC8DE80700A0F500501F38009071
:100E50000398002D0ADD42F21F014A460844002390
:100E600003A90390684600F066FF09E0A0F5005072
:100E70004A461F38002303A90390684600F070FF1C
:100E80008DE807000004000C03D04FF0FF3041084C
:100E900000E01046B8F1000F03D000220092154682
:100EA0001EE0751E05D4FFF7C9FE303262556D1E77
:100EB000F9D5B3460122084302D000227F1C04E08A
:100EC0002078302801D100227F1E002A099784D083
:100ED0001DE0112D07DAFFF7B1FE303262556D1CAF
:100EE00050EA0102F5D1084302D00098C8B10EE0E3
:100EF0000021681E05E0235C625C63542254401E9E
:100F0000491C8142F7DBAB46A81B401E099000201C
:100F100004F80B000B98099AC0F80880C0E9002B70
:100F20007AE711264FF0000857E72DE9F04F884681
:100F30000446D21D22F0070191B0D1E90001CDE9AC
:100F40000A0102F034FC02460B98C00F01D02D209C
:100F500007E02068810701D52B2002E0202101EA6B
:100F6000C000032A099001D0072A05DB0346414649
:100F7000204600F015FB0BE12078800601D5E069E2
:100F800000E00620B8F1650F814606D0B8F1660F83
:100F900018D0B8F1670F70D131E00020B9F1110F0E
:100FA000009001DB112301E009F101030AAA01A964
:100FB0000CA8FFF7E2FEDDE90C70002609F101053F
:100FC000834647E001204B4600904FF000470AAAB5
:100FD00001A90CA8FFF7D1FEDDE90DB00C995D4623
:100FE000002610B909F101000D18B9EB050003D472
:100FF000C0F1FF3609F10105A5EB09002BE0B9F1BD
:10100000010F01DA4FF001090020B9F1110F009032
:10101000484601DD112300E003460AAA01A90CA8F5
:10102000FFF7ABFEDDE90C704D46002683462078C5
:1010300000070AD4AB4500DA5D4601A8012D04DDA6
:10104000411911F8011C302907D04F4502DA17F178
:10105000040F04DA012082460FE06D1EEEE7002F38
:1010600002DCED1B3E4403E0781CA84200DD7D1C41
:10107000B81B00F1010A4FF000472078000703D4A5
:10108000AA4501DB4FF0FF3A0021B7F1004F0DF107
:1010900043088DF8431024D002202B23002F01DABF
:1010A0007F422D230A21021EA0F1010000DC5FB166
:1010B00097FBF1FC97FBF1F201FB1C7C17460CF14E
:1010C000300C08F801CDEEE7A8F10100037021888B
:1010D000090501D5452100E06521A0F1010800F8CE
:1010E000011C09980FA9A1EB0807FF1D00B1012001
:1010F000411901EBEA70A1693844081A401EA06149
:101100002078C00602D42046FFF7C8FA099828B113
:10111000D4E901219047206A401C20622078C00653
:1011200022D52046FFF7BAFA1EE0002E04DBB345B5
:1011300002DD01A8805D00E03020D4E90121904764
:10114000206A401C2062761CAAF101005FEA000AB6
:101150000AD100F021FAC0680168405CD4E901219D
:101160009047206A401C2062281EA5F10105DCDCA6
:1011700007E0D4E9012118F8010B9047206A401CD0
:101180002062381EA7F10107F3DC2046FFF79CFA26
:10119000032011B041E600002DE9F04F04460D4652
:1011A000D21D22F0070089B0D0E9009748463946A1
:1011B00002F0FDFA0246F80F01D02D2307E0206867
:1011C000810701D52B2302E0202101EAC0038DF81D
:1011D00020300BB1012000E00020032A824601D01C
:1011E000072A04DB2946204600F0DAF93FE120789F
:1011F000800601D40D2500E0E569C7F30A560D2DE0
:1012000049DA00214FEA175B08464FF00000002F33
:1012100000F4400007DA00EB80004FF4400100EBDF
:10122000D07001EA60008115012901DD4FF0FF3126
:1012300000224FEA850CBCF1180F06D31346ACF11F
:1012400018004FF08052C24003E04FF4801323FA9D
:101250000CF30CF10C0CBCF1200F04D3ACF1200CFE
:1012600009FA0CF001E007FA0CF000294FF00048F1
:1012700001DD18B90FE00ED140450CD319EB02097E
:101280005F4121B9404502D19F4329EA0209BBEBE6
:10129000175F00D0761C2088000502D57B48784473
:1012A00002E07A487844193808AA302302F80A3054
:1012B000037C0AF10101002E0AF1020A53546A4626
:1012C00002DC4FF0300101E04FF031014FF0010836
:1012D0008DF8001002D0A6F2FF3603E059EA47016C
:1012E00000D06B4E002D02DC2178090704D54FF0A9
:1012F00002082E218DF80110C44600210BE0C7F32F
:1013000003433F01C35C491C6D1E02F808300529E8
:1013100008F1010801DA002DF1DC00210CE000EBFE
:101320001973491C1B786D1E082902F808304FEA12
:10133000091908F1010801DA002DF0DC21688B069B
:1013400002D516E0A8F10108E04505DD02EB08032F
:1013500013F8013C302BF5D0B8F1000F09DD02EB9A
:10136000080313F8013C2E2B03D1090701D4A8F17F
:101370000108002D05DD3E2102F808106D1E08F160
:101380000108407C002E02F8080008F1010804DA88
:101390002D20764202F8080002E02B2002F8080017
:1013A0000A214FF47A70864208F101080BDB96FBA4
:1013B000F0F3303302F8083096FBF0F308F101083F
:1013C00000FB136601E0642E0CDB642096FBF0F357
:1013D000303302F8083096FBF0F308F1010800FB07
:1013E000136601E00A2E06DB96FBF1F0303002F8BE
:1013F000080008F1010896FBF1F001FB10603030A5
:1014000002F80800A16908F1010808EB050202EBE7
:101410000A00081AA0612078C00602D42046FFF70F
:101420003DF9216A08AE01EB0A00206204E0D4E92C
:10143000012116F8010B9047BAF1010AF7D2207882
:10144000C00602D52046FFF729F96E4609E016F8D6
:10145000010B3E280FD0D4E901219047206A401C9F
:101460002062B8F10108F2D22046FFF72DF909B049
:101470000320BDE8F08F206A2844206203E0D4E90D
:101480000121302090476D1EEBD3F8E72633000092
:1014900002FCFFFF10B5436913B1AFF3008001E018
:1014A000FFF735F9012010BD127800F124010A7010
:1014B00000224A700122EDE711684FF0FF32E9E7A0
:1014C00010B5436913B1AFF3008001E0FFF7B6F93F
:1014D000012010BD128800F1240182840022C28400
:1014E0000122EDE711684FF0FF32E9E770B51646CB
:1014F0000C46054600F048F8036893F801010128FE
:1015000006D0FF2C0FD8185D68B101202C7070BD7B
:10151000D3F807013246214603F207130344284655
:10152000BDE8704018474FF0FF3070BD10B500F0B7
:10153000F7F8BDE8104000F0EEB870477546FFF7C9
:101540005FFBAE4605006946534620F0070085461E
:1015500018B020B5FEF7E2FEBDE820404FF00006CF
:101560004FF000074FF000084FF0000B21F007018B
:10157000AC46ACE8C009ACE8C009ACE8C009ACE8CE
:10158000C0098D467047000010B500F005F8001D39
:1015900010BD00BF892F000000487047A80100203F
:1015A0002DE9F0411F46044603260168072A01F48D
:1015B000006004DB08B116A505E016A503E008B13C
:1015C00015A500E015A521F010002060A069C01E3F
:1015D000A0610FB1401EA0612046FFF75FF84FB138
:1015E000D4E9012138469047206A401C2062C01C83
:1015F000206206E0206AFAE7D4E9012115F8010B20
:101600009047761EF8D22046FFF75EF8BDE8F081DD
:101610004E414E006E616E00494E4600696E660096
:101620002DE9F047814616468AB0354878440DC802
:101630008DE80D0032487844801C03AC0DC884E866
:101640000D0041F69B300844372190FBF1F290FBEE
:10165000F1F5A5F1800501FB12041B3C02D56442A3
:10166000012000E00020DFF898A080460027FA441F
:10167000AAF1BE0A0EE0E0070AD03246684607EB40
:10168000470101230AEB810100F06AFB8DE80700A6
:1016900064107F1C002CEED1194F7F44AE3F19E03F
:1016A000E80715D007EB04100DF1180A90E80E00BA
:1016B0008AE80E00C068F04201D1981908903246BD
:1016C000012306A903A800F04BFB03AB83E8070046
:1016D0006D10641C002DE3D14FF0010332466946C2
:1016E000B8F1000F03A802D000F025FB01E000F0E4
:1016F00037FBC9E90001C9F808200AB0BDE8F08746
:101700002830000010B50446AFF300802046BDE845
:101710001040FEF7EEBD002801D000F029B8704758
:1017200010B5012805D0002103A000F027F8012002
:1017300010BD09A1F8E7000053494752544D454DEB
:101740003A204F7574206F662068656170206D6562
:101750006D6F7279000000003A2048656170206D5D
:10176000656D6F727920636F727275707465640055
:1017700001491820ABBEFEE72600020070B5054601
:101780000C460A2000E06D1C00F052F835B12878B4
:101790000028F8D102E0641C00F04AF814B1207867
:1017A0000028F8D1BDE870400A2000F041B80000E0
:1017B0004FF0013C50F8042B51F8043B9A4221D1E0
:1017C000A2EB0C03934313EACC1317D150F8042B6C
:1017D00051F8043B9A4215D1A2EB0C03934313EA50
:1017E000CC130BD150F8042B51F8043B9A4209D189
:1017F000A2EB0C03934313EACC13DBD04FF00000B1
:10180000704700BFD01A01BAB1FA81F101F0180196
:1018100022FA01F0CB40C1F12001DBB2C0B2C01A04
:101820002CFA01F3D11A914311EAC311E6D17047A2
:1018300008B569468DF800000320ABBE08BD5FEA1D
:10184000400C08BF91F0000F4FEA8C234FEAC122F1
:1018500043EA51514FEA1C5018BF00F5F0404FEADF
:10186000300018BF41F000415FEA6C5C00F0298055
:10187000BCF1FF3F08BF40F080407047130C06BF2B
:1018800012044FF0100C4FF0000C130E04BF1202A4
:101890000CF1080C130F04BF12010CF1040C930F90
:1018A00004BF92000CF1020CD30F04BF52000CF1E4
:1018B000010C11464FF00002A0F11F00A0EB0C003C
:1018C000704711F0004F08BF704731F000413FF4FE
:1018D000D5AF0B0C06BF09044FF0100C4FF0000CF5
:1018E0000B0E04BF09020CF1080C0B0F04BF090119
:1018F0000CF1040C8B0F04BF89000CF1020CCB0F10
:1019000004BF49000CF1010CCCF12003A0EB0C004A
:1019100022FA03F302FA0CF241EA030100F101009A
:10192000704720F07F4C80EA030023F07F47ACEB48
:10193000070303F57C5300F0004003F1FF032DE99A
:1019400080494FEA154B09B44FEA144325EA0B4E80
:1019500024EA03480FF2042606EB132749083E78D1
:101960005FEA320203FB0667C7F5000707FB06F6CE
:101970004FEA54374FEAD64606F1020607FB066CDB
:10198000CCF1005C4FEA1C472CEA074C07FB06F43D
:101990000CFB06F504EB15464FEA961634BF002003
:1019A0004FF000404FEAD13706FB07FC4FEA1C4CD2
:1019B0000CFB0BF7D21B03FB0CF761EB07010CFBD5
:1019C0000EF7B0EB074072EB17420CFB08F734BF81
:1019D000A2EB0742B2EB074261EB17414FEA0C441E
:1019E0004FEA910706FB07FC4FEA1C4C0CFB0BF778
:1019F000B0EBC74072EB573203FB0CF734BFA2EBDE
:101A0000C742B2EBC74261EB57310CFB0EF7B0EBAC
:101A1000C70072EB57720CFB08F734BFA2EBC7028A
:101A2000B2EBC70261EB5771039F4FEA816141EA54
:101A3000921104EBCC044FEAD1374FEA826206FBE5
:101A400007FC42EA90124FEA80604FEA1C4C0CFB04
:101A50000BF7D21B03FB0CF761EB07010CFB0EF736
:101A6000B0EB074072EB17420CFB08F734BFA2EB58
:101A70000742B2EB074261EB17414FEA8C554FEA40
:101A8000910704EB9C2406FB07FC4FEA1C4C0CFB63
:101A90000BF7B0EBC74072EB573203FB0CF734BFC8
:101AA000A2EBC742B2EBC74261EB57310CFB0EF71A
:101AB000B0EBC70072EB57720CFB08F734BFA2EB18
:101AC000C702B2EBC70261EB577115EB4C254FEA29
:101AD000816141EA92114FEA82624FEAD13742EACC
:101AE000901206FB07FC44F100044FEA80604FEAC5
:101AF0001C4C0CFB0BF7D21B03FB0CF761EB070133
:101B00000CFB0EF7B0EB074072EB17420CFB08F72B
:101B100034BFA2EB0742B2EB074261EB174115EB72
:101B20001C154FEA813141EA92414FEA823242EA82
:101B300090424FEA80304FEA0C7644F1000448EAC4
:101B400003434EEA0B484FF0000EB2EB080C71EB6A
:101B5000030724BF624639464EEB0E0E4FF0000BD2
:101B60000018524149414BEB0B0BB2EB080C71EBE7
:101B700003077BF1000B24BF624639464EEB0E0E85
:101B80004FF0000B0018524149414BEB0B0BB2EBED
:101B9000080C71EB03077BF1000B24BF624639464A
:101BA0004EEB0E0E51EA020718BF46F0010616EB87
:101BB0000E7655F1000254F1000103D5BDE889010C
:101BC000BDE80088BDE88901BDE80048B61952416A
:101BD00041EB0101A3F10103704780807F7E7D7C92
:101BE0007B7A7978777676757473727171706F6EAF
:101BF0006E6D6C6C6B6A6A6968686766666564645A
:101C0000636362616160605F5F5E5E5D5D5C5C5BE3
:101C10005B5A5A5959585857575656555555545452
:101C2000535352525251515050504F4F4F4E4E4DB0
:101C30004D4D4C4C4C4B4B4B4A4A4A4949494848FC
:101C4000484747474746464645454544444444433C
:101C500043434342424242414141002B9C4630D4DF
:101C600077002BD01CB54FEA370703B44FF01000B4
:101C70004FF01001BAF1000F06D0BCF1000FDCBF2D
:101C800040F0080040F008014FF000000FBCBDE834
:101C900010400BF1010BBBF1010F08BF5FEA170702
:101CA00022BF12F1010211F101014FF0004143F195
:101CB000000300F0004043EA00007047F9D35708E2
:101CC000D0E746EA064613F1400F4FEA16461FDDFD
:101CD00013F1200FDFBF16430A46002120335B4279
:101CE000BED0C3F1200746EA064602FA07F74FEADC
:101CF000164646EA0706C3F1200722FA03F201FA64
:101D000007F721FA03F14FF0000342EA0702A7E7C1
:101D100046EA020646EA06464FEA164646EA010643
:101D2000BCBF46EA0646360C4FF000034FF00002F7
:101D30004FF0000194E72DE9804C9A46934670B429
:101D400091E8380007C831EA400C48BF34EA430C38
:101D500003D5FFF7E6FDFFF780FFF0BCBDE8008C80
:101D60002DE9804C9A46934670B491E8380007C834
:101D700010F0804F08BF13F0804F03D100F005F83A
:101D8000FFF76BFFF0BCBDE8008C20F07F4780EAD6
:101D9000030023F07F4C07EB0C03A3F57C5300F00A
:101DA0000040A3F1FE0392F0000F00F0B38095F025
:101DB000000F00F077802DE901494FEA11404FEA0A
:101DC000144621EA004800FB06FC24EA064708FB0B
:101DD00006F607FB08F800FB07F718EB06484CEB84
:101DE000164C4FEA124B18EB07484FEA15464CEBDE
:101DF000174022EA0B4E0BFB06FC25EA06470EFBBA
:101E000006F607FB0EFE0BFB07F71EEB064E4CEB30
:101E1000164C4FF000061EEB074E4CEB174B18EB21
:101E20000B0840F1000018EB0E0B58EB000840F1D6
:101E300000008F1A4FF000013CBFC943661B14BF5E
:101E4000B5EB040C00213CBFC943F61B4FEA174415
:101E50004EEA8E0E27EA04454FEA1C4704FB076250
:101E60002CEA074C05FB07F70CFB05F604FB0CFC02
:101E700016EB074642EB174216EB0C4642EB1C42B0
:101E80001BEB060658EB0202414146EA9E0601D5CD
:101E9000BDE80189B619524141EB0101A3F10103EB
:101EA000BDE801894FEA14454FEA114724EA054687
:101EB00021EA074C05FB07F406FB07F70CFB06F1CC
:101EC00005FB0CFC11EB074144EB17444FEA1247AA
:101ED00011EB0C4144EB1C4422EA074C05FB07F2D2
:101EE00006FB07F70CFB06F605FB0CFC16EB07469A
:101EF00042EB174216EB0C4642EB1C456A1854F1B4
:101F0000000148BF7047B619524141EB0101A3F1EE
:101F10000103704795F0000F37D04FEA11424FEAA6
:101F2000144721EA024624EA074C02FB07F106FBAC
:101F300007F70CFB06F402FB0CFC14EB074441EB27
:101F400017414FEA154714EB0C4441EB1C4125EABD
:101F5000074C02FB07F506FB07F70CFB06F602FB36
:101F60000CFC16EB074645EB174516EB0C4645EB0C
:101F70001C42121951F1000148BF7047B619524175
:101F800041EB0101A3F1010370474FEA14454FEA09
:101F9000114724EA054621EA074C05FB07F106FB39
:101FA00007F70CFB06F24FF0000605FB0CFC12EBEA
:101FB000074241EB174112EB0C4251EB1C4148BF69
:101FC0007047921841EB0101A3F101037047000033
:101FD00065E064213248FEF7E4FA002531A001F003
:101FE00003FF6B1E01222E49324801F0A3F82C4852
:101FF00005784FF0FF332A46411C2E4801F09AF82D
:10200000274841782CA001F0EFFE25484478A4F140
:1020100051000D283CD2DFE800F0070B0F13171B0F
:102020001F23272B2F3337001D4801F0FDFC34E020
:102030001B4801F0A3FC30E0194801F077FC2CE0CC
:10204000174801F0C9FC28E0154801F011FD24E013
:10205000134801F03FFC20E0114801F095FE1CE020
:102060000F4801F036FC18E00D4801F08BFE14E03B
:102070000B4801F0B8FE10E0094801F0B3FE0CE097
:10208000074801F025FC08E0054801F02BFD04E0BD
:1020900021460FA001F0A8FE00BF00BF00BF98E7D7
:1020A000A0000020456E74657220436F6D6D616EF7
:1020B000640D0A00180000205258656420436D64C6
:1020C00020436F64653A20307825780D0A000000BF
:1020D000494E56414C494420434F4D4D414E443AA0
:1020E00020307825780D0A0000BFFEE7704772B6F1
:1020F00000BFFEE710B5002201B909E0012901D1B6
:102100000A0205E0022901D10A0201E04FF44072FF
:102110000B2800D9001D0E4B1B6823F440730C4C98
:10212000236023461B681343236023461B6823F068
:10213000F803236023461B68022444EAC0042343B7
:10214000034C236023461B6843F48033236010BD97
:10215000103C02401C48006800F40070B0B11A48FE
:10216000006820F400701849086000BF0846006845
:1021700040F4006008600846006820F400600860D1
:1021800000BF0846006840F4007008600E48006810
:1021900000F48060B0B10C48006820F480600A4907
:1021A000086000BF0846006840F480500860084698
:1021B000006820F48050086000BF0846006840F4C2
:1021C0008060086070470000003C0240134A1268BB
:1021D00022F44072114B1A60032906D11A46126884
:1021E000DB131A430D4B1A600EE0012906D10B4A8E
:1021F000126842F00402094B1A6005E0074A1268AF
:1022000042F40042054B1A60044A12684FF48033CE
:1022100043EA00231A43014B1A607047103C024006
:102220002A48006800F0100040B12948C06940F019
:1022300010002749C861102024490860234800681D
:1022400000F0200040B12248C06940F00800204959
:10225000C86120201D4908601C48006800F040004B
:1022600040B11B48C06940F004001949C8614020D2
:10227000164908601548006800F0800040B1144815
:10228000C06940F002001249C86180200F4908600F
:102290000E48006800F4807048B10D48C06940F0F5
:1022A00001000B49C8614FF4807008490860074875
:1022B000006800F0020040B10548C06940F020000D
:1022C0000349C86102200149086070470C3C024084
:1022D0006801002070B50446002500201449C8613B
:1022E00000F0FAF9054609E0601C38B124B100F0AD
:1022F000F3F9401BA04201D9032070BD0D480068CE
:1023000000F480300028EFD10A48006800F0010096
:1023100010B10120074908600648006800F4F97010
:1023200018B1FFF77DFF0120E7E70020E5E7000097
:10233000680100200C3C024070B503460C460020AA
:1023400002255D71002104E054F821501E683560BB
:10235000491C9142F8D31D68286801255D7170BD44
:1023600010B504460CB9012010BD607920B90020D9
:102370002071204600F004F8012060710020F3E78E
:1023800008B50A4A016891420FD100BF00210091AF
:102390000749096841F48051054A116011460968EE
:1023A00001F48051009100BF00BF08BD0030024021
:1023B000303802402DE9F04104460E460127002541
:1023C00000BF2648007E012802D10220BDE8F0812E
:1023D00001202249087600BF4CF25030FFF77AFF07
:1023E0000746002F32D1401E30602068012810D1EE
:1023F000207C6168FFF7EAFE4CF25030FFF76AFF7D
:1024000007461748006848F20401884314490860E9
:102410001AE0A56812E0217C2846FFF76BFE4CF21B
:102420005030FFF757FF07460D48006820F0FA00CC
:102430000B4908600FB1356005E06D1CD4E902104E
:102440000844A842E7D800BFFFF784FE00BF002081
:102450000249087600BF3846B8E70000680100204E
:10246000103C02400348006840F000400149086009
:1024700000207047103C024000200949096801F023
:10248000004159B10749064A0C3A116006491160EA
:102490000349096801F0004101B1012070470000C3
:1024A000103C024023016745AB89EFCDF8B50246E9
:1024B0000B460025002400200021E0E0012606FA5A
:1024C00001F51E6806EA0504AC4274D11E7906F0D7
:1024D0000306012E04D01E7906F00306022E13D146
:1024E00090684F000326BE40B0434F00DE68BE40F8
:1024F00030439060506801268E40B0431E79C6F389
:1025000000168E40304350601E7906F00306032EFD
:1025100009D0D0684F000326BE40B0434F009E68EC
:10252000BE403043D0601E7906F00306022E13D160
:10253000CF0802F1200656F827004E07F70E0F26A7
:10254000BE40B0434F07FF0E1E69BE403043CF0868
:1025500002F1200646F8270010684F000326BE400F
:10256000B0431E7906F003064F00BE4030431060B2
:102570005E6806F44036002E1DD000BF002600968F
:10258000414E366846F480463F4F3E603E463668D0
:1025900006F48046009600BF00BF3C4E8F0856F8F8
:1025A00027008E07370F0F26BE40B043384EB24289
:1025B00002D100262EE061E0364EB24201D1012662
:1025C00028E0354EB24201D1022623E0334EB2421A
:1025D00001D103261EE0324EB24201D1042619E099
:1025E000304EB24201D1052614E02F4EB24201D145
:1025F00006260FE02D4EB24201D107260AE02C4EEE
:10260000B24201D1082605E02A4EB24201D1092684
:1026100000E00A268F073F0FBE4030431B4E8F0855
:1026200046F82700244E3068A0435E6806F4801602
:1026300006B12043204E3060361D3068A0435E68EE
:1026400006F4001606B120431B4E361D30601A4EAC
:10265000361F3068A0435E6806F4003606B120439A
:10266000154E361F3060361F3068A0435E6806F492
:10267000803606B12043104E083E3060491C1029B8
:10268000FFF41CAFF8BD0000443802400838014098
:10269000000002400004024000080240000C02401A
:1026A000001002400014024000180240001C0240CA
:1026B0000020024000240240083C01400246136909
:1026C0000B400BB1012000E0002070470AB181618E
:1026D00001E00B0483617047014800687047000007
:1026E00008000020034800680349097808440149AC
:1026F00008607047080000201000002010B50D4849
:10270000006840F400700B4908600846006840F417
:10271000806008600846006840F48070086003200C
:1027200000F092F80F2000F007F800F02BF80020DE
:1027300010BD0000003C024070B504460E48007811
:102740004FF47A71B1FBF0F00C490968B1FBF0F578
:10275000284600F01BFC08B1012070BD102C07D2E8
:1027600000222146501E00F031F80548046001E0C7
:102770000120F2E70020F0E7100000201400002004
:102780000C00002008B500BF002000900E48006833
:1027900040F480400C4908600846006800F480401E
:1027A000009000BF00BF00BF00200090081F00681D
:1027B00040F08050091F08600846006800F0805013
:1027C000009000BF00BF08BD443802402DE9F05F13
:1027D00080460D461646002701F002F807463946A6
:1027E0002A46334601F00700C0F1070ABAF1040F88
:1027F00002D94FF0040A01E0C0F1070AD14600F106
:10280000040ABAF1070F02D24FF0000A01E0A0F16A
:10281000030AD4464FF0010A0AFA09FAAAF1010A9A
:102820000AEA020A0AFA0CFA4FF0010B0BFA0CFB47
:10283000ABF1010B0BEA030B4AEA0B0421464046BD
:1028400000F0D6FFBDE8F09F00BF00F00702064B86
:1028500019684FF6FF031940044B0B4343EA02216A
:10286000014B196000BF70470CED00E00000FA0555
:1028700070B504460D460CB9012070BD584800687B
:1028800000F00F00A84209D255490D7008460068B3
:1028900000F00F00A84201D00120EEE7207800F000
:1028A000020002281DD1207800F00400042805D180
:1028B0004C48006840F4E0504A490860207800F035
:1028C0000800082805D14748006840F460404549A1
:1028D00008604448006820F0F000A16808434149BE
:1028E0000860207800F00100A8B36068012807D1D3
:1028F0003C4808380068C0F34040B8B90120BCE744
:102900006068022802D06068032807D1354808387B
:102910000068C0F3406048B90120AEE7314808388C
:102920000068C0F3400008B90120A6E72D48006800
:1029300020F00300616808432A490860FFF7CCFED5
:10294000064609E0FFF7C8FE801B41F28831884245
:1029500002D9032091E707E02248006800F00C004C
:102960006168B0EB810FEDD11D48006800F00F00E9
:10297000A84209D91A490D700846006800F00F00F6
:10298000A84201D0012078E7207800F00400042854
:1029900007D11448006820F4E050E1680843114969
:1029A0000860207800F00800082808D10D48006869
:1029B00020F46040216940EAC1000A49086000F043
:1029C0003FF808490968C1F30311074A515CC84040
:1029D0000649086006480068FFF7AEFE00204CE795
:1029E000003C0240083802405A450008140000200C
:1029F0000C0000200148006870470000140000200F
:102A000000B5FFF7F7FF04490968C1F38221034AC3
:102A1000515CC84000BD0000083802406A4500080B
:102A200000B5FFF7E7FF04490968C1F34231034AE3
:102A3000515CC84000BD0000083802406A450008EB
:102A40002DE9F047002400250026A146254800680E
:102A500000F00C0020B1042805D008283AD105E088
:102A6000DFF8849039E0DFF8849036E01D48001FDD
:102A7000006800F03F041B48001F006800F480005D
:102A800078B11A481749091F0968C1F38811A0FBDA
:102A900001700146224600233846FDF7A7FC054693
:102AA0000EE011480F49091F0968C1F38811A0FB06
:102AB00001700146224600233846FDF797FC054683
:102AC0000848001F0068C0F30140401C4600B5FBE9
:102AD000F6F902E0DFF8109000BF00BF4846BDE8FD
:102AE000F0870000083802400024F40040787D019F
:102AF000F8B504460CB90120F8BD207800F00100BB
:102B0000002874D0F948006800F00C0004280DD0AB
:102B1000F648006800F00C00082813D1F348001FA5
:102B2000006800F48000B0F5800F0BD1EF48083842
:102B30000068C0F34040002859D06068002856D192
:102B40000120D9E700BF6068B0F5803F08D1E748B1
:102B50000838006840F48030E449083908601EE015
:102B60006068B0F5A02F0DD1E0480838006840F447
:102B70008020DE49083908600846006840F480304B
:102B800008600CE0D9480838006820F48030D74944
:102B9000083908600846006820F48020086000BFFB
:102BA000606890B1FFF798FD054606E0FFF794FDD9
:102BB000401B642801D903209EE7CC4808380068F0
:102BC000C0F340400028F1D011E0FFF785FD054635
:102BD00006E0FFF781FD401B642801D903208BE745
:102BE000C24808380068C0F340400028F1D120787E
:102BF00000F0020002285FD1BC48006800F00C0021
:102C000058B1BA48006800F00C0008281CD1B74839
:102C1000001F006800F48000B0B9B44808380068AC
:102C2000C0F3400020B1E068012801D0012063E733
:102C3000AE480838006820F0F800216940EAC10079
:102C4000AA490839086037E0E06800B30120A849C4
:102C50000860FFF741FD054606E0FFF73DFD401B1C
:102C6000022801D9032047E7A04808380068C0F3CC
:102C700040000028F1D09D480838006820F0F80096
:102C8000216940EAC10099490839086014E0002030
:102C900097490860FFF720FD054606E0FFF71CFD99
:102CA000401B022801D9032026E790480838006815
:102CB000C0F340000028F1D1207800F00800082877
:102CC0002CD16069A8B101208A490860FFF704FD92
:102CD000054606E0FFF700FD401B022801D903204E
:102CE0000AE782486C300068C0F340000028F1D049
:102CF00014E000207F490860FFF7EEFC054606E07F
:102D0000FFF7EAFC401B022801D90320F4E67748CC
:102D10006C300068C0F340000028F1D1207800F04A
:102D20000400042870D1002770483830006800F093
:102D3000805090B900BF002000906C483830006887
:102D400040F080506949383108600846006800F05A
:102D50008050009000BF00BF01276748006800F462
:102D60008070B0B96448006840F4807062490860BF
:102D7000FFF7B2FC054606E0FFF7AEFC401B022859
:102D800001D90320B8E65C48006800F48070002890
:102D9000F2D000BFA068012808D15448683000680C
:102DA00040F001005149683108601DE0A068052825
:102DB0000DD14E486830006840F004004B4968313E
:102DC00008600846006840F0010008600CE04748D1
:102DD0006830006820F00100444968310860084606
:102DE000006820F00400086000BFA068A8B1FFF7E9
:102DF00073FC054609E0FFF76FFC401B41F2883188
:102E0000884202D9032077E626E038486830006817
:102E1000C0F340000028EED013E0FFF75DFC05464C
:102E200008E0FFF759FC401B41F28831884201D984
:102E3000032061E62D4868300068C0F34000002898
:102E4000EFD1012F07D129483830006820F0805099
:102E500026493831086000BFA069002845D02348C2
:102E6000006800F00C0008285DD0A069022845D158
:102E700000201F490866FFF72FFC054606E0FFF714
:102E80002BFC401B022801D9032035E617480838DF
:102E90000068C0F340600028F1D1D4E9070108437D
:102EA000616A40EA81110122A06AC2EB500041EA46
:102EB00000412C20005D41EA00600C49091F0860B8
:102EC00001200B490866FFF707FC054606E0FFF7FF
:102ED00003FC401B022801D903200DE603480838F3
:102EE0000068C0F340600028F1D049E00838024093
:102EF00000004742800E47420070004000202149F8
:102F00000866FFF7E9FB054606E0FFF7E5FB401B17
:102F1000022801D90320EFE51B480068C0F3406098
:102F20000028F2D12CE0A069012800D1E4E5164880
:102F3000001D0668A069012820D006F48001E06920
:102F400081421BD106F03F01206A814216D147F62B
:102F5000C0703040616AB0EB811F0FD106F4403180
:102F60000122A06AC2EB5000B1EB004F06D106F07F
:102F700070612C20005DB1EB006F01D00120BBE53A
:102F80000020B9E5000047420038024070B5044611
:102F90002546681EB0F1807F01D301200FE0681E36
:102FA0004FF0E02148610F214FF0FF3000F020FC8E
:102FB00000204FF0E021886107200861002070BDEB
:102FC00010B504460CB9012010BDA06900B100E0A5
:102FD00000BF94F83D0028B9002084F83C0020464A
:102FE00000F028F8242084F83D002068C06820F410
:102FF00000502168C860204600F078FA2068006917
:1030000020F49040216808612068406920F02A007F
:10301000216848612068C06840F400502168C86099
:1030200000202064202084F83D0084F83E00002029
:10303000CAE7000010B586B00446142101A8FDF7C8
:10304000B0FA37492068884231D100BF0020009093
:103050003448006840F010003249086008460068B3
:1030600000F01000009000BF00BF00BF00200090E3
:103070002C481438006840F001002A4914390860CF
:103080000846006800F00100009000BF00BF4FF448
:10309000C060019002200290002003900320049061
:1030A0000720059001A92048FFF700FA35E01F49E5
:1030B0002068884231D100BF002000901948001FCD
:1030C000006840F400301749091F0860084600688E
:1030D00000F40030009000BF00BF00BF002000904F
:1030E00010481438006840F008000E491439086090
:1030F0000846006800F00800009000BF00BF602094
:1031000001900220029000200390032004900720E9
:10311000059001A90648FFF7C9F906B010BD0000E7
:1031200000100140443802400000024000440040CA
:10313000000C02402DE9F84F04460E46174699460A
:103140004FF0000A94F83E0020285FD106B117B96D
:103150000120BDE8F88F00BF94F83C00012801D1A0
:103160000220F6E7012084F83C0000BF0020206424
:10317000222084F83E0000202063FFF7ADFA82464B
:10318000A785E785A068B0F5805F04D1206910B9F4
:103190000025B04602E035464FF0000800BF002091
:1031A00084F83C0000BF29E053460022202120463D
:1031B000CDF8009000F0B0FA08B10320C9E745B996
:1031C00020684068C0F30800A8F8000008F1020871
:1031D00011E0A068B0F5805F03D0A06828B920692D
:1031E00018B920684068287004E02068406800F042
:1031F0007F0028706D1CE08D401EE085E08D00286A
:10320000D2D1202084F83E000020A2E70220A0E7CF
:103210002DE9F84F04460E46174699464FF0000A2E
:1032200094F83D0020285AD106B117B90120BDE815
:10323000F88F00BF94F83C00012801D10220F6E786
:10324000012084F83C0000BF00202064212084F885
:103250003D00FFF741FA8246A784E784A068B0F5F5
:10326000805F04D1206910B90025B04602E03546E0
:103270004FF0000800BF002084F83C0000BF1BE0B6
:103280005346002280212046CDF8009000F044FAF9
:1032900008B10320CBE745B9B8F80000C0F3080037
:1032A0002168486008F1020803E028782168486036
:1032B0006D1CE08C401EE084E08C0028E0D1534679
:1032C000002240212046CDF8009000F025FA08B1F8
:1032D0000320ACE7202084F83D000020A7E702206F
:1032E000A5E700BFFEE7000010B5054805490860E6
:1032F0000846FFF735F808B1FEF7F9FE10BD0000EB
:10330000003002400000002000B587B0142102A860
:10331000FDF747F900BF002001902448006840F005
:103320000100224908600846006800F00100019091
:1033300000BF00BF00BF002001900846006840F0B9
:10334000080008600846006800F00800019000BF0F
:1033500000BF00BF002001900846006840F0400018
:1033600008600846006800F04000019000BF00BF00
:1033700000224FF4C0410E48FFF7A8F90120029047
:1033800000200390049002A90A48FFF78FF84FF439
:10339000C04002900120039002200490002005907C
:1033A00002A90348FFF782F807B000BD3038024099
:1033B000001802400000024010B50B480B4908609D
:1033C0004FF4E1304860002108488160C16001612C
:1033D0000C21416100218161C161FFF7F1FD08B15C
:1033E000FEF785FE10BD000000100140180000200F
:1033F00010B50B480B4908604FF4E13048600021DC
:1034000008488160C16001610C2141610021816136
:10341000C161FFF7D5FD08B1FEF769FE10BD0000E0
:10342000004400405C00002000BFFEE700BFFEE754
:103430007047704710B5FFF755F910BD00B593B050
:10344000302107A8FDF7ADF8142102A8FDF7A9F86F
:1034500000BF002001901E48006840F080501C49C9
:1034600008600846006800F08050019000BF00BF6F
:1034700000BF002001901748006820F4404040F44D
:103480008040144908600846006800F440400190FC
:1034900000BF00BF0220079001200A9010200B906F
:1034A00000200D9007A8FFF723FB08B1FEF71FFED1
:1034B0000F200290002003900490059006900021B8
:1034C00002A8FFF7D5F908B1FEF711FE13B000BD51
:1034D00040380240007000400348006840F470002B
:1034E000014908607047000088ED00E02DE9F84FC1
:1034F00004462068006920F44050E16808432168D0
:1035000008612169A068084361690843E1690843CB
:1035100000902068C06849F20C6188430099084314
:103520002168C8602068406920F44070A1690843A0
:103530002168486176492068884203D0754920682F
:10354000884203D1FFF76CFA814602E0FFF758FA90
:103550008146E069B0F5004F6CD102206168A0FBA4
:10356000015003461920A9FB007001462A4638463F
:10357000FCF73CFF6421B0FBF1F04FEA001A022097
:103580006168A0FB01510B461920A9FB00712A4676
:103590003846FCF72BFF834602206168A0FB0150F0
:1035A00003461920A9FB00712A463846FCF71EFF86
:1035B0006421B0FBF1F000EBC00101EB0010ABEBBC
:1035C0008000322101EBC0006421B0FBF1F000F07B
:1035D000F8000AEB400A02206168A0FB0150034694
:1035E0001920A9FB007001462A463846FCF7FEFE6A
:1035F000834602206168A0FB015003461920A9FB05
:1036000000712A463846FCF7F1FE6421B0FBF1F068
:1036100000EBC00101EB0010ABEB8000322101EBAD
:10362000C0006421B0FBF1F000F0070050442168B5
:1036300088606AE004206168A0FB015003461920FD
:10364000A9FB007001462A463846FCF7CFFE8246A9
:1036500004206168A0FB015003461920A9FB0070FB
:1036600001462A463846FCF7C1FE6421B0FBF1F062
:1036700000EBC00101EB0010AAEB8000322101EB4E
:1036800000106421B0FBF1F000F0F00A0420616842
:10369000A0FB017003461920A9FB00513A462846B9
:1036A000FCF7A4FE6421B0FBF1F00AEB001A042041
:1036B0006168A0FB01510B461920A9FB00712A4645
:1036C0003846FCF793FE834604206168A0FB015056
:1036D00003461920A9FB007001462A463846FCF72C
:1036E00085FE6421B0FBF1F000EBC00101EB00109E
:1036F000ABEB8000322101EB00106421B0FBF1F054
:1037000000F00F00504421688860BDE8F88F000089
:1037100000100140001401402DE9F04104460D461F
:1037200017469846069E34E0701C88B32EB1FEF70B
:10373000D3FFA0EB0800B0422BD900BF00BF216827
:103740000C3151E8001F21F4D07021680C3141E8A0
:103750000002002AF3D100BF00BF00BF216814316E
:1037600051E8001F21F001002168143141E80002F6
:10377000002AF3D100BF202084F83D0084F83E00E9
:1037800000BF002084F83C0000BF0320BDE8F081AA
:10379000FFE7206800682840A84201D1012000E02E
:1037A0000020B842C0D00020F0E700BFFEE703B41D
:1037B00001984100009850EAC12018BF04204A0D2A
:1037C00018BF40F0010040F2FF72B2EB515F08BF3A
:1037D00040F00200012808BF052002B07047000039
:1037E00002480068C0F30220704700000CED00E0C2
:1037F00010B5002804DB0A07130E054A135406E02F
:103800000A07140E034A00F00F031B1FD45410BD07
:1038100000E400E018ED00E030380A2801D2012071
:10382000704700207047000070B504460121042055
:1038300000F0C2FB0849D4E9012000F057FC204603
:1038400000F01AF80546294604A000F0CDFA024817
:1038500000F040FB70BD000000000108426F6F7473
:10386000696E672066726F6D20494D4147453A2069
:1038700025630D0A0000000001460348814201D182
:10388000412070474220FCE70080000830B585B039
:1038900005460C464FF0FF30009000200190049048
:1038A0000948844205D10848143002900220039050
:1038B00003E006480290032003901422694628463C
:1038C000FCF73DFE05B030BD0080000814C00008C4
:1038D00070477047F8B5044608A000F085FA01204B
:1038E00000F0D8FAA578E6783146284600F064FB67
:1038F00000900121684600F02FFBF8BD72656163FE
:103900006865643A20626F6F746C6F616465725FA2
:1039100068616E646C655F666C6173685F65726137
:1039200073655F636D640D0A0000000038B50546DD
:1039300007A000F059FA10480468C4F30B00009087
:10394000022000F0A7FA0221684600F005FB38BD0E
:10395000726561636865643A20626F6F746C6F6151
:103960006465725F68616E646C655F6765746369E6
:10397000645F636D640D0A00002004E038B50546FD
:103980000AA000F031FA002000906846FCF7B8FD6C
:10399000C4B2204600F07EFA6846FCF7B1FD04464A
:1039A0002146684600F0D8FA38BD000072656163B0
:1039B0006865643A20626F6F746C6F616465725FF2
:1039C00068616E646C655F67657468656C705F6381
:1039D0006D640D0A0000000038B5054607A000F030
:1039E00003FA10480468C4F307200090012000F097
:1039F00051FA0121684600F0AFFA38BD7265616383
:103A00006865643A20626F6F746C6F616465725FA1
:103A100068616E646C655F6765747264705F636D26
:103A2000640D0A00143C024038B5044606A000F0BC
:103A3000DBF9012000F02EFA00F0AEFB009001212E
:103A4000684600F089FA38BD726561636865643A5A
:103A500020626F6F746C6F616465725F68616E6421
:103A60006C655F6765747665725F636D640D0A00EF
:103A7000F8B50546012000F00DFA00200090012164
:103A8000684600F069FA07A000F0AEF9D5F80240E8
:103A900044F0010421460CA000F0A6F92646B047E8
:103AA000F8BD0000726561636865643A20626F6FFB
:103AB000746C6F616465725F68616E646C655F678A
:103AC0006F5F636D640D0A004A756D70696E6720E3
:103AD000746F20616464726573733A20307825785E
:103AE0000D0A00002DE9F14FB6B05DA000F07CF9A1
:103AF0003698D0F8026043F6EC70864204D900F0A4
:103B0000DBF937B0BDE8F08F002000F0C3F90020EA
:103B10003490C6F3C71706F07F0008B1781CC7B20F
:103B20004FF0000801200D90314658A000F05CF9DC
:103B300039465BA000F058F900F030FB044614222F
:103B4000214608A8FCF7FBFC214603A8FFF79EFED0
:103B5000DDF814900699C8B2012100F02DFA20B1C9
:103B600056A0069900F040F9CBE746E098210EA850
:103B7000FCF717FD01210DA800F0EEF900BF4FF092
:103B8000FF3301220EA95B48FFF7D4FA0028F6D1D3
:103B90009DF83850431E2A1D0DF139015548FFF795
:103BA000C9FA0EA82844D0F801A05246691C0EA8F4
:103BB00000F082FC8346BBF1010F06D100F07CF9D6
:103BC00051464DA000F010F99BE7012000F062F98A
:103BD0002A4649460DF1390000F088FAA94408F157
:103BE000010000F0FF083A4641464EA000F0FCF804
:103BF000012134A800F0B0F900BFB845B6DB606819
:103C000035903598FCF79CFB02900C98401C07906F
:103C100004963146059800F099FA0390DDE9060113
:103C2000CDE90001204603A90EC900F0A3F9204602
:103C3000FFF722FE8246514640A000F0D5F848A08A
:103C4000D4E90032216900F0CFF845A0DDE9033264
:103C5000079900F0C9F80298FCF7A1FB00BF50E7F4
:103C6000726561636865643A20626F6F746C6F613E
:103C70006465725F68616E646C655F696D616765DC
:103C80005F7570646174650D0A000000696D61679D
:103C9000652073697A653A2025640D0A00000000EA
:103CA0004672616D657320746F2062652072656372
:103CB00065697665643A2025640D0A00212121207A
:103CC0004552524F52207768696C65206572617366
:103CD000696E6720666C61736820736563746F72C8
:103CE0002025642E0D0A52657475726E696E672EFA
:103CF0002E0D0A00180000200A4352432043484575
:103D0000434B204641494C454420212121202D2D63
:103D100020686F7374204352433A20307825780D21
:103D20000A0000004672616D657320526563656923
:103D30007665643A2025642F25640D00494D41477E
:103D400045202563207772697474656E20737563EE
:103D50006365737366756C6C792E0D0A0000000044
:103D600056657273696F6E3A2025642C2053697A08
:103D7000653A2025642C204352433A203078257838
:103D80000D0A000070470000F8B504460AA000F0D4
:103D90002BF8012000F07EF800200090D4F80250AB
:103DA000A67932462946E01D00F0A0F901216846B7
:103DB00000F0D2F8F8BD0000726561636865643A8E
:103DC00020626F6F746C6F616465725F68616E64AE
:103DD0006C655F6D656D5F77726974655F636D6457
:103DE0000D0A0000704770470FB400B5ADB02FA8A2
:103DF0001F9020A81F9A2E99FCF770FB26221B49C2
:103E00000EA8FCF79CFB1948C08CADF85E00174863
:103E1000816A1891808DADF864001448C08DADF8AA
:103E200066001248006B1A900922104934311BA811
:103E3000FCF785FB0D4890F83D008DF875000B48A8
:103E400090F83E008DF876000848006C1E9020A87F
:103E5000342212A90D906846FCF771FB0EA80FC81A
:103E600000F006F82DB05DF814FB00005C000020A7
:103E70000FB470B5159C2046FCF742FB85B24FF09D
:103E8000FF332A46214604A8FFF7C2F970BC5DF84B
:103E900014FB000038B50446A5208DF800008DF80D
:103EA00001404FF0FF33022269460248FFF7B0F9A4
:103EB00038BD00001800002008B57F2000904FF0AA
:103EC000FF33012269460248FFF7A2F908BD00004E
:103ED000180000202DE9F04105462E6831460AA061
:103EE000FFF782FF304680F3088800BF6C6844F01B
:103EF000010421460AA0FFF777FF274610A0FFF72D
:103F000073FFB847BDE8F08153657474696E67202C
:103F10004D535020746F20307825580D0A00000052
:103F200052657365742048616E646C6572204164EB
:103F300064726573733A20307825780D0A000000AA
:103F40004A756D70696E6720746F20696D61676571
:103F50002E2E2E0D0A00000070B504460D46AAB2A2
:103F60004FF0FF3321460248FFF752F970BD0000C1
:103F7000180000200FB470B504462046FFF77CFC03
:103F80000546294605A0FFF72FFF1422214605A864
:103F900000F0ACF870BC5DF814FB00005772697457
:103FA000696E6720256320496D61676520736574BC
:103FB00074696E67730D0A0030B587B004460D460C
:103FC0001CA0FFF711FF00200190FF2C07D121A0BA
:103FD000FFF70AFF012002900320039017E0601909
:103FE00018280ED821A0FFF7FFFE2A46214624A05C
:103FF000FFF7FAFE00200290049405950220069037
:1040000005E02AA0FFF7F0FE012007B030BDFEF763
:1040100033FA2DA0FFF7E8FE00BF01A902A8FEF7C2
:10402000C9F90028F9D12DA0FFF7DEFEFEF71AFA34
:104030000020EAE7726561636865643A2065786527
:10404000637574655F666C6173685F6572617365E3
:104050000D0A0000506572666F726D696E67204DC3
:104060004153532045524153450D0A004572617337
:10407000696E6720736563746F72732E2E0D0A006C
:10408000466972737420736563746F723A20256495
:104090002C206E756D626572206F66207365637487
:1040A0006F72733A2025640D0A000000494E564194
:1040B0004C494420534543544F522043484F4943B1
:1040C000452121210D0A0000426567696E20457275
:1040D0006173652E2E2E0D0A00000000457261737B
:1040E0006520446F6E652E0D0A0000002DE9F04139
:1040F00004460E4615463746FEF7BEF912480068DC
:1041000020F44070104908600846006840F0010043
:10411000086008E04FF0FF30FEF7DCF820783870D8
:104120007F1C641C6D1E002DF4D1681EFEF7D2F8B2
:104130000548006820F0010003490860FEF792F985
:104140000020BDE8F0810000103C0240F8B50546B3
:104150000E46FF270F480068806840F001000D49B7
:1041600009688860002408E0285D00900122694603
:104170000848FEF7E1F80746641CB442F4D305484A
:104180000068806840F0010002490968886038468C
:10419000F8BD0000000000201020704770B513A08B
:1041A000FFF722FE194C1A4D204600F093F9012822
:1041B00004D118A0FFF718FE204670BD284600F075
:1041C00089F9012804D119A0FFF70EFE2846F4E76B
:1041D000226911461BA0FFF707FE20692969884262
:1041E00001D82046E9E72846E7E7000072656163E9
:1041F0006865643A206765745F696D6167655F74BF
:104200006F5F7570646174650D0A000000800008BE
:1042100000C00008494D41474520412043524320FA
:104220004661696C65640D0A00000000494D414714
:1042300045204220435243204661696C65640D0A63
:104240000000000076657273696F6E7320412C2048
:10425000423A2025642C2025640D0A008CB0FEF71C
:104260004DFAFFF7EBF8FFF74FF8FFF7A5F8FFF768
:10427000BFF8FFF739F8A7E001215448FEF71EFA0E
:1042800020B153A0FFF7B0FDFDF7A2FE55A0FFF748
:10429000ABFD594C594D58481430A0605748143064
:1042A000A860204600F016F908B9012000E00020BF
:1042B0000746394652A0FFF797FD284600F00AF955
:1042C00008B9012000E000208046414657A0FFF7D2
:1042D0008BFD61A0FFF788FD77B1B8F1000F0BD01F
:1042E00020692969884203D32046FFF79DFA5FE0E1
:1042F0002846FFF799FA5BE0AFB1294607A8FFF718
:10430000C5FA0A99C8B20121FFF756FEDDE90A0194
:10431000CDE90001284607A90EC9FFF72BFE20466C
:10432000FFF782FA44E0B8F1000F15D0214607A844
:10433000FFF7ACFA0A99C8B20121FFF73DFEDDE9AB
:104340000A01CDE90001204607A90EC9FFF712FEB8
:104350002846FFF769FA2BE046A0FFF745FD214606
:1043600007A8FFF793FA294602A8FFF78FFA0A99E0
:10437000C8B20121FFF720FE0599C8B20121FFF75D
:104380001BFEDDE90A01CDE90001204607A90EC99F
:10439000FFF7F0FDDDE90501CDE90001284602A99E
:1043A0000EC9FFF7E7FD3DA0FFF71EFD00BFFEE7CA
:1043B00000BFFEF791F9064600BFFEF78DF906F53E
:1043C000FA718842F9D300BF56E7000000000240AE
:1043D000427574746F6E20707265737365640D0A34
:1043E00000000000427574746F6E2072656C656128
:1043F0007365640D0A0000000080000800C000081A
:1044000056616C69646174696E6720435243206F22
:104410006620494D41474520412E204352432056B6
:10442000616C69643A2025640D0A000056616C696C
:10443000646174696E6720435243206F6620494D62
:1044400041474520422E204352432056616C696407
:104450003A2025640D0A00004352432076616C69BE
:10446000646174696F6E20636F6D706C6574650D47
:104470000A0000004552524F52202121210D0A42CC
:104480004F544820494D414745532041524520490A
:104490004E56414C49442E0D0A0000000D0A52456B
:1044A00053455420414E4420524550524F475241AB
:1044B0004D2E0D0A0000000070B505460E4614464C
:1044C00031462846FFF742FEA04201D1002070BDD0
:1044D0000120FCE710B504462068401C08B9012003
:1044E00010BDD4E90021A068FFF7E6FFF8E700005F
:1044F00010B500290AD00878002807D0054878446C
:10450000FDF756F9002801D0002010BD024878447C
:1045100010BD0000920100008A01000010B50029C2
:104520000AD00878002807D005487844FDF740F9FC
:10453000002801D0002010BD0248784410BD0000C2
:10454000820100007A0100004FF04070E1EE100A95
:104550007047FCF7EABCFCF71FBE0000000000003B
:104560000000010203040607080900000000010220
:10457000030400000000000000000000303132336E
:104580003435363738394142434445464030580087
:1045900030313233343536373839616263646566B9
:1045A0004030780004000008000000000000000215
:1045B000000100001030313233343536373839617C
:1045C0006263646566787000303132333435363773
:1045D00038394142434445465850000002400000EB
:1045E000000000A00000000005400000000000C81E
:1045F000000000000C4000000000409C0000000093
:10460000194000000020BCBE000000003440000043
:10461000BFC91B8E00000004B5400000504BCFD036
:104620006607E2CF010000006C4100003E8251AA03
:10463000DFEEA73401000000D9420000DCB5A0E2A3
:104640003A301F97FFFFFFFFB4450000FD25A0C8CB
:10465000E9A3C14FFFFFFFFFFF3F00000000008004
:1046600000000000FF3F000000000080000000008C
:10467000BC4700080000002018000000E801000806
:10468000D447000818000020D007000004020008EA
:104690001C00000043000000F8FFFFFF0C000000BA
:1046A0000E0000000F0000002E00000010010000AE
:1046B00043000000F8FFFFFF004040404040404002
:1046C00040404141414141404040404040404040E5
:1046D0004040404040404040400502020202020289
:1046E00002020202020202020220202020202020D8
:1046F00020202002020202020202909090909090EC
:1047000010101010101010101010101010101010A9
:10471000101010100202020202028888888888881D
:104720000808080808080808080808080808080809
:104730000808080802020202400000000000000011
:104740000000000000000000000000000000000069
:104750000000000000000000000000000000000059
:104760000000000000000000000000000000000049
:104770000000000000000000000000000000000039
:104780000000000000000000000000000000000029
:104790000000000000000000000000000000000019
:1047A0000000000000000000000000000000000009
:1047B00000000000000000000000000000000000F9
:1047C00000000000000000001000000001000000D8
:0447D0000024F400CD
:04000005080001AD41
:00000001FF
